{
  "contractName": "PhotoNFTMarketplace",
  "abi": [
    {
      "inputs": [
        {
          "internalType": "contract PhotoNFTData",
          "name": "_photoNFTData",
          "type": "address"
        }
      ],
      "payable": false,
      "stateMutability": "nonpayable",
      "type": "constructor"
    },
    {
      "anonymous": false,
      "inputs": [
        {
          "indexed": false,
          "internalType": "contract PhotoNFT",
          "name": "photoNFT",
          "type": "address"
        },
        {
          "indexed": false,
          "internalType": "uint256",
          "name": "photoId",
          "type": "uint256"
        },
        {
          "indexed": false,
          "internalType": "address",
          "name": "ownerBeforeOwnershipTransferred",
          "type": "address"
        },
        {
          "indexed": false,
          "internalType": "address",
          "name": "ownerAfterOwnershipTransferred",
          "type": "address"
        }
      ],
      "name": "PhotoNFTOwnershipChanged",
      "type": "event"
    },
    {
      "anonymous": false,
      "inputs": [
        {
          "indexed": false,
          "internalType": "uint256",
          "name": "ad",
          "type": "uint256"
        },
        {
          "indexed": false,
          "internalType": "bytes32",
          "name": "status",
          "type": "bytes32"
        }
      ],
      "name": "TradeStatusChange",
      "type": "event"
    },
    {
      "constant": true,
      "inputs": [],
      "name": "PHOTO_NFT_MARKETPLACE",
      "outputs": [
        {
          "internalType": "address",
          "name": "",
          "type": "address"
        }
      ],
      "payable": false,
      "stateMutability": "view",
      "type": "function"
    },
    {
      "constant": false,
      "inputs": [
        {
          "internalType": "contract PhotoNFT",
          "name": "photoNFT",
          "type": "address"
        },
        {
          "internalType": "uint256",
          "name": "_photoId",
          "type": "uint256"
        }
      ],
      "name": "cancelTrade",
      "outputs": [],
      "payable": false,
      "stateMutability": "nonpayable",
      "type": "function"
    },
    {
      "constant": true,
      "inputs": [],
      "name": "creatorAddr",
      "outputs": [
        {
          "internalType": "address",
          "name": "",
          "type": "address"
        }
      ],
      "payable": false,
      "stateMutability": "view",
      "type": "function"
    },
    {
      "constant": true,
      "inputs": [
        {
          "internalType": "uint256",
          "name": "_photoId",
          "type": "uint256"
        }
      ],
      "name": "getTrade",
      "outputs": [
        {
          "components": [
            {
              "internalType": "address",
              "name": "seller",
              "type": "address"
            },
            {
              "internalType": "uint256",
              "name": "photoId",
              "type": "uint256"
            },
            {
              "internalType": "uint256",
              "name": "photoPrice",
              "type": "uint256"
            },
            {
              "internalType": "bytes32",
              "name": "status",
              "type": "bytes32"
            }
          ],
          "internalType": "struct PhotoNFTTradable.Trade",
          "name": "trade_",
          "type": "tuple"
        }
      ],
      "payable": false,
      "stateMutability": "view",
      "type": "function"
    },
    {
      "constant": false,
      "inputs": [
        {
          "internalType": "contract PhotoNFT",
          "name": "photoNFT",
          "type": "address"
        },
        {
          "internalType": "uint256",
          "name": "_photoId",
          "type": "uint256"
        },
        {
          "internalType": "uint256",
          "name": "photoPrice",
          "type": "uint256"
        }
      ],
      "name": "openTrade",
      "outputs": [],
      "payable": false,
      "stateMutability": "nonpayable",
      "type": "function"
    },
    {
      "constant": false,
      "inputs": [
        {
          "internalType": "contract PhotoNFT",
          "name": "photoNFT",
          "type": "address"
        },
        {
          "internalType": "uint256",
          "name": "_photoId",
          "type": "uint256"
        },
        {
          "internalType": "uint256",
          "name": "_photoPrice",
          "type": "uint256"
        }
      ],
      "name": "openTradeWhenCreateNewPhotoNFT",
      "outputs": [],
      "payable": false,
      "stateMutability": "nonpayable",
      "type": "function"
    },
    {
      "constant": true,
      "inputs": [],
      "name": "photoNFT",
      "outputs": [
        {
          "internalType": "contract PhotoNFT",
          "name": "",
          "type": "address"
        }
      ],
      "payable": false,
      "stateMutability": "view",
      "type": "function"
    },
    {
      "constant": true,
      "inputs": [],
      "name": "photoNFTData",
      "outputs": [
        {
          "internalType": "contract PhotoNFTData",
          "name": "",
          "type": "address"
        }
      ],
      "payable": false,
      "stateMutability": "view",
      "type": "function"
    },
    {
      "constant": true,
      "inputs": [
        {
          "internalType": "uint256",
          "name": "",
          "type": "uint256"
        }
      ],
      "name": "trades",
      "outputs": [
        {
          "internalType": "address",
          "name": "seller",
          "type": "address"
        },
        {
          "internalType": "uint256",
          "name": "photoId",
          "type": "uint256"
        },
        {
          "internalType": "uint256",
          "name": "photoPrice",
          "type": "uint256"
        },
        {
          "internalType": "bytes32",
          "name": "status",
          "type": "bytes32"
        }
      ],
      "payable": false,
      "stateMutability": "view",
      "type": "function"
    },
    {
      "constant": false,
      "inputs": [
        {
          "internalType": "contract PhotoNFT",
          "name": "_photoNFT",
          "type": "address"
        },
        {
          "internalType": "uint256",
          "name": "_photoId",
          "type": "uint256"
        },
        {
          "internalType": "address",
          "name": "_buyer",
          "type": "address"
        }
      ],
      "name": "transferOwnershipOfPhotoNFT",
      "outputs": [],
      "payable": false,
      "stateMutability": "nonpayable",
      "type": "function"
    },
    {
      "constant": false,
      "inputs": [
        {
          "internalType": "contract PhotoNFT",
          "name": "_photoNFT",
          "type": "address"
        }
      ],
      "name": "buyPhotoNFT",
      "outputs": [
        {
          "internalType": "bool",
          "name": "",
          "type": "bool"
        }
      ],
      "payable": true,
      "stateMutability": "payable",
      "type": "function"
    },
    {
      "constant": false,
      "inputs": [
        {
          "internalType": "address",
          "name": "from",
          "type": "address"
        },
        {
          "internalType": "address",
          "name": "to",
          "type": "address"
        },
        {
          "internalType": "uint256",
          "name": "photoId",
          "type": "uint256"
        }
      ],
      "name": "reputation",
      "outputs": [
        {
          "internalType": "uint256",
          "name": "",
          "type": "uint256"
        },
        {
          "internalType": "uint256",
          "name": "",
          "type": "uint256"
        }
      ],
      "payable": false,
      "stateMutability": "nonpayable",
      "type": "function"
    },
    {
      "constant": true,
      "inputs": [
        {
          "internalType": "uint256",
          "name": "photoId",
          "type": "uint256"
        }
      ],
      "name": "getReputationCount",
      "outputs": [
        {
          "internalType": "uint256",
          "name": "",
          "type": "uint256"
        }
      ],
      "payable": false,
      "stateMutability": "view",
      "type": "function"
    }
  ],
  "bytecode": "0x60806040523480156200001157600080fd5b506040516200181238038062001812833981016040819052620000349162000086565b600180546001600160a01b039092166001600160a01b0319928316811790915560006003556006805483163317905560058054909216179055620000ef565b80516200008081620000d5565b92915050565b6000602082840312156200009957600080fd5b6000620000a7848462000073565b949350505050565b60006200008082620000c9565b60006200008082620000af565b6001600160a01b031690565b620000e081620000bc565b8114620000ec57600080fd5b50565b61171380620000ff6000396000f3fe6080604052600436106100c25760003560e01c80634fe71d131161007f578063a2793daf11610059578063a2793daf14610213578063baea40e214610241578063e61b28db14610261578063ec03951414610283576100c2565b80634fe71d13146101b1578063759c4bf3146101c65780637cc0c9bd146101e6576100c2565b806316552393146100c757806316f946ef146100f25780631e6c598e146101125780632db25e0514610142578063493c21761461016f57806349b1d3e714610191575b600080fd5b3480156100d357600080fd5b506100dc610298565b6040516100e991906113cb565b60405180910390f35b6101056101003660046110c0565b6102a7565b6040516100e9919061146f565b34801561011e57600080fd5b5061013261012d3660046111c2565b610712565b6040516100e99493929190611431565b34801561014e57600080fd5b5061016261015d3660046111c2565b610745565b6040516100e99190611567565b34801561017b57600080fd5b5061018f61018a366004611118565b6107a1565b005b34801561019d57600080fd5b5061018f6101ac36600461115b565b610897565b3480156101bd57600080fd5b506100dc6109a7565b3480156101d257600080fd5b5061018f6101e13660046110de565b6109b6565b3480156101f257600080fd5b506102066102013660046111c2565b610b43565b6040516100e99190611575565b34801561021f57600080fd5b5061023361022e366004611055565b610b49565b6040516100e99291906115b7565b34801561024d57600080fd5b5061018f61025c36600461115b565b610b54565b34801561026d57600080fd5b50610276610d41565b6040516100e9919061147d565b34801561028f57600080fd5b50610276610d50565b6006546001600160a01b031681565b6000816102b2610d8e565b600554604051637fd6c40560e01b81526001600160a01b0390911690637fd6c405906102e290859060040161147d565b60006040518083038186803b1580156102fa57600080fd5b505afa15801561030e573d6000803e3d6000fd5b505050506040513d6000823e601f3d908101601f19168201604052610336919081019061118d565b6060810151608082015160065460a084015193945091929091839183916001600160a01b03169061271061280a8202049034821461038f5760405162461bcd60e51b815260040161038690611557565b60405180910390fd5b6040516001600160a01b0386169061271061222e84020480156108fc02916000818181858888f193505050501580156103cc573d6000803e3d6000fd5b506040516001600160a01b038516906127106103e884020480156108fc02916000818181858888f1935050505015801561040a573d6000803e3d6000fd5b506040516001600160a01b038416906127106101f484020480156108fc02916000818181858888f19350505050158015610448573d6000803e3d6000fd5b5060405163095ea7b360e01b815233906001906001600160a01b038c169063095ea7b39061047c908590859060040161140f565b600060405180830381600087803b15801561049657600080fd5b505af11580156104aa573d6000803e3d6000fd5b50506040516331a9108f60e11b8152600092506001600160a01b038e169150636352211e906104dd908590600401611575565b60206040518083038186803b1580156104f557600080fd5b505afa158015610509573d6000803e3d6000fd5b505050506040513d601f19601f8201168201806040525061052d919081019061102f565b905061053a8c83856107a1565b600554604051637cb1479b60e01b81526001600160a01b0390911690637cb1479b9061056c908f90879060040161148b565b602060405180830381600087803b15801561058657600080fd5b505af115801561059a573d6000803e3d6000fd5b505050506040513d601f19601f820116820180604052506105be91908101906110a2565b50600554604051634dd5bfa560e11b81526001600160a01b0390911690639bab7f4a906105ef908f906004016114a6565b602060405180830381600087803b15801561060957600080fd5b505af115801561061d573d6000803e3d6000fd5b505050506040513d601f19601f8201168201806040525061064191908101906110a2565b506040516331a9108f60e11b81526000906001600160a01b038e1690636352211e90610671908690600401611575565b60206040518083038186803b15801561068957600080fd5b505afa15801561069d573d6000803e3d6000fd5b505050506040513d601f19601f820116820180604052506106c1919081019061102f565b90507fa8ffd0052cf94298cdb4d728ccaebde44f94e7568e31b2129a24a8b2e10fea8c8d8484846040516106f894939291906114f2565b60405180910390a150505050505050505050505050919050565b600260208190526000918252604090912080546001820154928201546003909201546001600160a01b0390911692919084565b61074d610dfc565b610755610dfc565b5050600090815260026020818152604092839020835160808101855281546001600160a01b03168152600182015492810192909252918201549281019290925260030154606082015290565b826107aa610dfc565b6107b384610745565b905080606001516327b832b760e11b146107df5760405162461bcd60e51b815260040161038690611547565b6107ea858585610d5f565b60208101516040516323b872dd60e01b81526001600160a01b038416916323b872dd9161081e913091889190600401611401565b600060405180830381600087803b15801561083857600080fd5b505af115801561084c573d6000803e3d6000fd5b505050506810d85b98d95b1b195960ba1b61086685610745565b606001526040516000805160206116b183398151915290610888908690611583565b60405180910390a15050505050565b6040516323b872dd60e01b81526001600160a01b038416906323b872dd906108c7903390309087906004016113d9565b600060405180830381600087803b1580156108e157600080fd5b505af11580156108f5573d6000803e3d6000fd5b50506003805460019081018083556040805160808101825233815260208082018a81528284018a81526327b832b760e11b60608501908152600096875260029384905295859020935184546001600160a01b0319166001600160a01b03909116178455905195830195909555935193810193909355905191830191909155905490516000805160206116b1833981519152935061099a9250600019919091019061159d565b60405180910390a1505050565b6004546001600160a01b031681565b600154604051634dd5bfa560e11b81526001600160a01b0390911690639bab7f4a906109e69085906004016114a6565b602060405180830381600087803b158015610a0057600080fd5b505af1158015610a14573d6000803e3d6000fd5b505050506040513d601f19601f82011682018060405250610a3891908101906110a2565b50600081815260026020526040902080546001600160a01b03163314610a705760405162461bcd60e51b815260040161038690611527565b80600301546327b832b760e11b14610a9a5760405162461bcd60e51b815260040161038690611547565b805460018201546040516323b872dd60e01b81526001600160a01b03868116936323b872dd93610ad293309390921691600401611401565b600060405180830381600087803b158015610aec57600080fd5b505af1158015610b00573d6000803e3d6000fd5b505050600083815260026020526040908190206810d85b98d95b1b195960ba1b600390910155516000805160206116b1833981519152915061099a908490611583565b50600090565b600080935093915050565b600154604051634dd5bfa560e11b81526001600160a01b0390911690639bab7f4a90610b849086906004016114c5565b602060405180830381600087803b158015610b9e57600080fd5b505af1158015610bb2573d6000803e3d6000fd5b505050506040513d601f19601f82011682018060405250610bd691908101906110a2565b506001546040516322bcb96f60e11b81526001600160a01b039091169063457972de90610c0990869085906004016114e4565b602060405180830381600087803b158015610c2357600080fd5b505af1158015610c37573d6000803e3d6000fd5b505050506040513d601f19601f82011682018060405250610c5b91908101906110a2565b50600082815260026020526040902080546001600160a01b03163314610c935760405162461bcd60e51b815260040161038690611537565b60018101546040516323b872dd60e01b81526001600160a01b038616916323b872dd91610cc79133913091906004016113d9565b600060405180830381600087803b158015610ce157600080fd5b505af1158015610cf5573d6000803e3d6000fd5b505050600084815260026020526040908190206327b832b760e11b600390910155516000805160206116b18339815191529150610d3390859061159d565b60405180910390a150505050565b6000546001600160a01b031681565b6005546001600160a01b031681565b60009182526002602052604090912080546001600160a01b0319166001600160a01b0390921691909117905550565b60405180610140016040528060006001600160a01b03168152602001606081526020016060815260200160006001600160a01b0316815260200160006001600160a01b0316815260200160008152602001606081526020016060815260200160608152602001600081525090565b60408051608081018252600080825260208201819052918101829052606081019190915290565b8035610e2e8161167e565b92915050565b8051610e2e8161167e565b8051610e2e81611695565b8035610e2e8161169e565b8051610e2e8161169e565b600082601f830112610e7157600080fd5b8151610e84610e7f826115ec565b6115c5565b91508082526020830160208301858383011115610ea057600080fd5b610eab838284611652565b50505092915050565b60006101408284031215610ec757600080fd5b610ed26101406115c5565b90506000610ee08484610e55565b825250602082015167ffffffffffffffff811115610efd57600080fd5b610f0984828501610e60565b602083015250604082015167ffffffffffffffff811115610f2957600080fd5b610f3584828501610e60565b6040830152506060610f4984828501610e34565b6060830152506080610f5d84828501610e34565b60808301525060a0610f7184828501611024565b60a08301525060c082015167ffffffffffffffff811115610f9157600080fd5b610f9d84828501610e60565b60c08301525060e082015167ffffffffffffffff811115610fbd57600080fd5b610fc984828501610e60565b60e08301525061010082015167ffffffffffffffff811115610fea57600080fd5b610ff684828501610e60565b6101008301525061012061100c84828501611024565b6101208301525092915050565b8035610e2e816116a7565b8051610e2e816116a7565b60006020828403121561104157600080fd5b600061104d8484610e34565b949350505050565b60008060006060848603121561106a57600080fd5b60006110768686610e23565b935050602061108786828701610e23565b925050604061109886828701611019565b9150509250925092565b6000602082840312156110b457600080fd5b600061104d8484610e3f565b6000602082840312156110d257600080fd5b600061104d8484610e4a565b600080604083850312156110f157600080fd5b60006110fd8585610e4a565b925050602061110e85828601611019565b9150509250929050565b60008060006060848603121561112d57600080fd5b60006111398686610e4a565b935050602061114a86828701611019565b925050604061109886828701610e23565b60008060006060848603121561117057600080fd5b600061117c8686610e4a565b935050602061108786828701611019565b60006020828403121561119f57600080fd5b815167ffffffffffffffff8111156111b657600080fd5b61104d84828501610eb4565b6000602082840312156111d457600080fd5b600061104d8484611019565b6111e981611647565b82525050565b6111e98161161d565b6111e981611628565b6111e98161162d565b6111e981611630565b6000611220602683611614565b7f54726164652063616e2062652063616e63656c6c6564206f6e6c79206279207381526532b63632b91760d11b602082015260400192915050565b6000611268602183611614565b7f54726164652063616e206265206f70656e206f6e6c792062792073656c6c65728152601760f91b602082015260400192915050565b60006112ab601283611614565b712a3930b2329034b9903737ba1027b832b71760711b815260200192915050565b6810d85b98d95b1b195960ba1b9052565b60006112ea600983611614565b6810d85b98d95b1b195960ba1b815260200192915050565b6327b832b760e11b9052565b600061131b600483611614565b6327b832b760e11b815260200192915050565b600061133b602b83611614565b7f6d73672e76616c75652073686f756c6420626520657175616c20746f2074686581526a2070686f746f507269636560a81b602082015260400192915050565b8051608083019061138c84826111ef565b50602082015161139f6020850182611201565b5060408201516113b26040850182611201565b5060608201516113c56060850182611201565b50505050565b60208101610e2e82846111ef565b606081016113e782866111e0565b6113f460208301856111ef565b61104d6040830184611201565b606081016113e782866111ef565b6040810161141d82856111ef565b61142a6020830184611201565b9392505050565b6080810161143f82876111ef565b61144c6020830186611201565b6114596040830185611201565b6114666060830184611201565b95945050505050565b60208101610e2e82846111f8565b60208101610e2e828461120a565b60408101611499828561120a565b61142a60208301846111ef565b604081016114b4828461120a565b818103602083015261142a816112dd565b604081016114d3828461120a565b818103602083015261142a8161130e565b6040810161141d828561120a565b60808101611500828761120a565b61150d6020830186611201565b61151a60408301856111ef565b61146660608301846111ef565b60208082528101610e2e81611213565b60208082528101610e2e8161125b565b60208082528101610e2e8161129e565b60208082528101610e2e8161132e565b60808101610e2e828461137b565b60208101610e2e8284611201565b604081016115918284611201565b610e2e602083016112cc565b604081016115ab8284611201565b610e2e60208301611302565b6040810161141d8285611201565b60405181810167ffffffffffffffff811182821017156115e457600080fd5b604052919050565b600067ffffffffffffffff82111561160357600080fd5b506020601f91909101601f19160190565b90815260200190565b6000610e2e8261163b565b151590565b90565b6000610e2e8261161d565b6001600160a01b031690565b6000610e2e82611630565b60005b8381101561166d578181015183820152602001611655565b838111156113c55750506000910152565b6116878161161d565b811461169257600080fd5b50565b61168781611628565b61168781611630565b6116878161162d56fe4d38ed2c5ea671a5ccddc331f0ebebd94a60aaf6e572543497485d4d148f9edfa365627a7a72315820de3f0b81f3ab6a93fd94c89bee871ed3a498de74a40ed8fa6c30bda3740adae46c6578706572696d656e74616cf564736f6c63430005100040",
  "source": "pragma solidity ^0.5.16;\npragma experimental ABIEncoderV2;\n\n//import { ERC20 } from './openzeppelin-solidity/contracts/token/ERC20/ERC20.sol';\nimport { SafeMath } from \"./openzeppelin-solidity/contracts/math/SafeMath.sol\";\nimport { PhotoNFT } from \"./PhotoNFT.sol\";\nimport { PhotoNFTTradable } from \"./PhotoNFTTradable.sol\";\nimport { PhotoNFTMarketplaceEvents } from \"./photo-nft-marketplace/commons/PhotoNFTMarketplaceEvents.sol\";\nimport { PhotoNFTData } from \"./PhotoNFTData.sol\";\n\n\ncontract PhotoNFTMarketplace is PhotoNFTTradable, PhotoNFTMarketplaceEvents {\n    using SafeMath for uint256;\n\n    address public PHOTO_NFT_MARKETPLACE;\n\n    PhotoNFTData public photoNFTData;\n\n    address public creatorAddr;\n\n    constructor(PhotoNFTData _photoNFTData) public PhotoNFTTradable(_photoNFTData) {\n        creatorAddr = msg.sender;\n        photoNFTData = _photoNFTData;\n        address payable PHOTO_NFT_MARKETPLACE = address(uint160(address(this)));\n    }\n\n\n    /** \n     * @notice - Buy function is that buy NFT token and ownership transfer. (Reference from IERC721.sol)\n     * @notice - msg.sender buy NFT with ETH (msg.value)\n     * @notice - PhotoID is always 1. Because each photoNFT is unique.\n     */\n    function buyPhotoNFT(PhotoNFT _photoNFT) public payable returns (bool) {\n        PhotoNFT photoNFT = _photoNFT;\n\n        PhotoNFTData.Photo memory photo = photoNFTData.getPhotoByNFTAddress(photoNFT);\n        address _seller = photo.ownerAddress;/// Owner\n        address _artist = photo.artistAddress;/// Creator\n        address payable seller = address(uint160(_seller));  /// Convert owner address with payable\n        address payable artist = address(uint160(_artist));  /// Convert artist address with payable\n        address payable creator = address(uint160(creatorAddr));  /// Convert artist address with payable\n        uint buyAmount = photo.photoPrice * 10250 / 10000;\n        uint photoPrice = photo.photoPrice;\n        require (msg.value == buyAmount, \"msg.value should be equal to the photoPrice\");\n \n        /// Bought-amount is transferred into a seller wallet\n        \n\n        seller.transfer(photoPrice * 8750 / 10000);\n\n        artist.transfer(photoPrice * 1000 / 10000 );\n\n        creator.transfer(photoPrice * 500 / 10000 );\n\n        /// Approve a buyer address as a receiver before NFT's transferFrom method is executed\n        address buyer = msg.sender;\n        uint photoId = 1;  /// [Note]: PhotoID is always 1. Because each photoNFT is unique.\n        photoNFT.approve(buyer, photoId);\n\n        address ownerBeforeOwnershipTransferred = photoNFT.ownerOf(photoId);\n\n        /// Transfer Ownership of the PhotoNFT from a seller to a buyer\n        transferOwnershipOfPhotoNFT(photoNFT, photoId, buyer);    \n        photoNFTData.updateOwnerOfPhotoNFT(photoNFT, buyer);\n        photoNFTData.updateStatus(photoNFT, \"Cancelled\");\n\n        /// Event for checking result of transferring ownership of a photoNFT\n        address ownerAfterOwnershipTransferred = photoNFT.ownerOf(photoId);\n        emit PhotoNFTOwnershipChanged(photoNFT, photoId, ownerBeforeOwnershipTransferred, ownerAfterOwnershipTransferred);\n\n        /// Mint a photo with a new photoId\n        //string memory tokenURI = photoNFTFactory.getTokenURI(photoData.ipfsHashOfPhoto);  /// [Note]: IPFS hash + URL\n        //photoNFT.mint(msg.sender, tokenURI);\n    }\n\n\n    ///-----------------------------------------------------\n    /// Methods below are pending methods\n    ///-----------------------------------------------------\n\n    /** \n     * @dev reputation function is that gives reputation to a user who has ownership of being posted photo.\n     * @dev Each user has reputation data in struct\n     */\n    function reputation(address from, address to, uint256 photoId) public returns (uint256, uint256) {\n\n        // Photo storage photo = photos[photoId];\n        // photo.reputation = photo.reputation.add(1);\n\n        // emit AddReputation(photoId, photo.reputation);\n\n        // return (photoId, photo.reputation);\n        return (0, 0);\n    }\n    \n\n    function getReputationCount(uint256 photoId) public view returns (uint256) {\n        uint256 curretReputationCount;\n\n        // Photo memory photo = photos[photoId];\n        // curretReputationCount = photo.reputation;\n\n        return curretReputationCount;\n    }    \n\n}\n",
  "sourcePath": "D:\\4.Works\\5.0513-\\0623(NFT)\\sample\\NFT-photo-marketplace-main\\contracts\\PhotoNFTMarketPlace.sol",
  "compiler": {
    "name": "solc",
    "version": "0.5.16+commit.9c3226ce.Emscripten.clang"
  },
  "schemaVersion": "3.4.1",
  "updatedAt": "2021-07-09T05:23:34.104Z",
  "networkType": "ethereum",
  "devdoc": {
    "methods": {
      "cancelTrade(address,uint256)": {
        "details": "Cancels a trade by the seller."
      },
      "getTrade(uint256)": {
        "details": "- Returns the details for a trade."
      },
      "openTrade(address,uint256,uint256)": {
        "details": "Opens a trade by the seller."
      },
      "openTradeWhenCreateNewPhotoNFT(address,uint256,uint256)": {
        "details": "Opens a new trade. Puts _photoId in escrow.",
        "params": {
          "_photoId": "The id for the photoId to trade.",
          "_photoPrice": "The amount of currency for which to trade the photoId."
        }
      },
      "reputation(address,address,uint256)": {
        "details": "reputation function is that gives reputation to a user who has ownership of being posted photo.Each user has reputation data in struct"
      },
      "transferOwnershipOfPhotoNFT(address,uint256,address)": {
        "details": "Executes a trade. Must have approved this contract to transfer the amount of currency specified to the seller. Transfers ownership of the photoId to the filler."
      }
    }
  },
  "userdoc": {
    "methods": {
      "buyPhotoNFT(address)": {
        "notice": "- Buy function is that buy NFT token and ownership transfer. (Reference from IERC721.sol)- msg.sender buy NFT with ETH (msg.value)- PhotoID is always 1. Because each photoNFT is unique."
      },
      "openTradeWhenCreateNewPhotoNFT(address,uint256,uint256)": {
        "notice": "- This method is only executed when a seller create a new PhotoNFT"
      }
    }
  }
}