{
  "contractName": "PhotoNFTData",
  "abi": [
    {
      "inputs": [],
      "payable": false,
      "stateMutability": "nonpayable",
      "type": "constructor"
    },
    {
      "constant": true,
      "inputs": [
        {
          "internalType": "uint256",
          "name": "",
          "type": "uint256"
        }
      ],
      "name": "photoAddresses",
      "outputs": [
        {
          "internalType": "address",
          "name": "",
          "type": "address"
        }
      ],
      "payable": false,
      "stateMutability": "view",
      "type": "function"
    },
    {
      "constant": true,
      "inputs": [
        {
          "internalType": "uint256",
          "name": "",
          "type": "uint256"
        }
      ],
      "name": "photos",
      "outputs": [
        {
          "internalType": "contract PhotoNFT",
          "name": "photoNFT",
          "type": "address"
        },
        {
          "internalType": "string",
          "name": "photoNFTName",
          "type": "string"
        },
        {
          "internalType": "string",
          "name": "photoNFTSymbol",
          "type": "string"
        },
        {
          "internalType": "address",
          "name": "ownerAddress",
          "type": "address"
        },
        {
          "internalType": "address",
          "name": "artistAddress",
          "type": "address"
        },
        {
          "internalType": "uint256",
          "name": "photoPrice",
          "type": "uint256"
        },
        {
          "internalType": "string",
          "name": "ipfsHashOfPhoto",
          "type": "string"
        },
        {
          "internalType": "string",
          "name": "photoMeta",
          "type": "string"
        },
        {
          "internalType": "string",
          "name": "status",
          "type": "string"
        },
        {
          "internalType": "uint256",
          "name": "reputation",
          "type": "uint256"
        }
      ],
      "payable": false,
      "stateMutability": "view",
      "type": "function"
    },
    {
      "constant": false,
      "inputs": [
        {
          "internalType": "address[]",
          "name": "_photoAddresses",
          "type": "address[]"
        },
        {
          "internalType": "contract PhotoNFT",
          "name": "_photoNFT",
          "type": "address"
        },
        {
          "internalType": "string",
          "name": "_photoNFTName",
          "type": "string"
        },
        {
          "internalType": "string",
          "name": "_photoNFTSymbol",
          "type": "string"
        },
        {
          "internalType": "address",
          "name": "_ownerAddress",
          "type": "address"
        },
        {
          "internalType": "uint256",
          "name": "_photoPrice",
          "type": "uint256"
        },
        {
          "internalType": "string",
          "name": "_ipfsHashOfPhoto",
          "type": "string"
        },
        {
          "internalType": "string",
          "name": "_photoMeta",
          "type": "string"
        }
      ],
      "name": "saveMetadataOfPhotoNFT",
      "outputs": [
        {
          "internalType": "bool",
          "name": "",
          "type": "bool"
        }
      ],
      "payable": false,
      "stateMutability": "nonpayable",
      "type": "function"
    },
    {
      "constant": false,
      "inputs": [
        {
          "internalType": "contract PhotoNFT",
          "name": "_photoNFT",
          "type": "address"
        },
        {
          "internalType": "address",
          "name": "_newOwner",
          "type": "address"
        }
      ],
      "name": "updateOwnerOfPhotoNFT",
      "outputs": [
        {
          "internalType": "bool",
          "name": "",
          "type": "bool"
        }
      ],
      "payable": false,
      "stateMutability": "nonpayable",
      "type": "function"
    },
    {
      "constant": false,
      "inputs": [
        {
          "internalType": "contract PhotoNFT",
          "name": "_photoNFT",
          "type": "address"
        },
        {
          "internalType": "string",
          "name": "_newStatus",
          "type": "string"
        }
      ],
      "name": "updateStatus",
      "outputs": [
        {
          "internalType": "bool",
          "name": "",
          "type": "bool"
        }
      ],
      "payable": false,
      "stateMutability": "nonpayable",
      "type": "function"
    },
    {
      "constant": false,
      "inputs": [
        {
          "internalType": "contract PhotoNFT",
          "name": "_photoNFT",
          "type": "address"
        },
        {
          "internalType": "uint256",
          "name": "_photoPrice",
          "type": "uint256"
        }
      ],
      "name": "updatePrice",
      "outputs": [
        {
          "internalType": "bool",
          "name": "",
          "type": "bool"
        }
      ],
      "payable": false,
      "stateMutability": "nonpayable",
      "type": "function"
    },
    {
      "constant": true,
      "inputs": [
        {
          "internalType": "uint256",
          "name": "index",
          "type": "uint256"
        }
      ],
      "name": "getPhoto",
      "outputs": [
        {
          "components": [
            {
              "internalType": "contract PhotoNFT",
              "name": "photoNFT",
              "type": "address"
            },
            {
              "internalType": "string",
              "name": "photoNFTName",
              "type": "string"
            },
            {
              "internalType": "string",
              "name": "photoNFTSymbol",
              "type": "string"
            },
            {
              "internalType": "address",
              "name": "ownerAddress",
              "type": "address"
            },
            {
              "internalType": "address",
              "name": "artistAddress",
              "type": "address"
            },
            {
              "internalType": "uint256",
              "name": "photoPrice",
              "type": "uint256"
            },
            {
              "internalType": "string",
              "name": "ipfsHashOfPhoto",
              "type": "string"
            },
            {
              "internalType": "string",
              "name": "photoMeta",
              "type": "string"
            },
            {
              "internalType": "string",
              "name": "status",
              "type": "string"
            },
            {
              "internalType": "uint256",
              "name": "reputation",
              "type": "uint256"
            }
          ],
          "internalType": "struct PhotoNFTDataObjects.Photo",
          "name": "_photo",
          "type": "tuple"
        }
      ],
      "payable": false,
      "stateMutability": "view",
      "type": "function"
    },
    {
      "constant": true,
      "inputs": [
        {
          "internalType": "contract PhotoNFT",
          "name": "photoNFT",
          "type": "address"
        }
      ],
      "name": "getPhotoIndex",
      "outputs": [
        {
          "internalType": "uint256",
          "name": "_photoIndex",
          "type": "uint256"
        }
      ],
      "payable": false,
      "stateMutability": "view",
      "type": "function"
    },
    {
      "constant": true,
      "inputs": [
        {
          "internalType": "contract PhotoNFT",
          "name": "photoNFT",
          "type": "address"
        }
      ],
      "name": "getPhotoByNFTAddress",
      "outputs": [
        {
          "components": [
            {
              "internalType": "contract PhotoNFT",
              "name": "photoNFT",
              "type": "address"
            },
            {
              "internalType": "string",
              "name": "photoNFTName",
              "type": "string"
            },
            {
              "internalType": "string",
              "name": "photoNFTSymbol",
              "type": "string"
            },
            {
              "internalType": "address",
              "name": "ownerAddress",
              "type": "address"
            },
            {
              "internalType": "address",
              "name": "artistAddress",
              "type": "address"
            },
            {
              "internalType": "uint256",
              "name": "photoPrice",
              "type": "uint256"
            },
            {
              "internalType": "string",
              "name": "ipfsHashOfPhoto",
              "type": "string"
            },
            {
              "internalType": "string",
              "name": "photoMeta",
              "type": "string"
            },
            {
              "internalType": "string",
              "name": "status",
              "type": "string"
            },
            {
              "internalType": "uint256",
              "name": "reputation",
              "type": "uint256"
            }
          ],
          "internalType": "struct PhotoNFTDataObjects.Photo",
          "name": "_photo",
          "type": "tuple"
        }
      ],
      "payable": false,
      "stateMutability": "view",
      "type": "function"
    },
    {
      "constant": true,
      "inputs": [],
      "name": "getAllPhotos",
      "outputs": [
        {
          "components": [
            {
              "internalType": "contract PhotoNFT",
              "name": "photoNFT",
              "type": "address"
            },
            {
              "internalType": "string",
              "name": "photoNFTName",
              "type": "string"
            },
            {
              "internalType": "string",
              "name": "photoNFTSymbol",
              "type": "string"
            },
            {
              "internalType": "address",
              "name": "ownerAddress",
              "type": "address"
            },
            {
              "internalType": "address",
              "name": "artistAddress",
              "type": "address"
            },
            {
              "internalType": "uint256",
              "name": "photoPrice",
              "type": "uint256"
            },
            {
              "internalType": "string",
              "name": "ipfsHashOfPhoto",
              "type": "string"
            },
            {
              "internalType": "string",
              "name": "photoMeta",
              "type": "string"
            },
            {
              "internalType": "string",
              "name": "status",
              "type": "string"
            },
            {
              "internalType": "uint256",
              "name": "reputation",
              "type": "uint256"
            }
          ],
          "internalType": "struct PhotoNFTDataObjects.Photo[]",
          "name": "_photos",
          "type": "tuple[]"
        }
      ],
      "payable": false,
      "stateMutability": "view",
      "type": "function"
    }
  ],
  "bytecode": "0x608060405234801561001057600080fd5b50611c4b806100206000396000f3fe608060405234801561001057600080fd5b506004361061009e5760003560e01c80637fd6c405116100665780637fd6c405146101275780639bab7f4a14610147578063af2a5d6f1461015a578063b6be128a14610183578063dc0985c3146101965761009e565b80631e11035f146100a35780631f4342be146100cc578063457972de146100ec57806348c31171146100ff5780637cb1479b14610114575b600080fd5b6100b66100b13660046115af565b6101b6565b6040516100c391906119fa565b60405180910390f35b6100df6100da3660046116d6565b61039f565b6040516100c39190611ae1565b6100b66100fa36600461177e565b6103f5565b61010761042f565b6040516100c391906119e9565b6100b66101223660046116fc565b6107c5565b61013a6101353660046116d6565b610855565b6040516100c39190611ad0565b6100b6610155366004611736565b610c1e565b61016d6101683660046117ae565b610c6b565b6040516100c39a99989796959493929190611a08565b61013a6101913660046117ae565b610f98565b6101a96101a43660046117ae565b611311565b6040516100c391906119db565b60006101c0611338565b5060408051610140810182526001600160a01b038a8116825260208083018b81528385018b905289831660608501819052608085015260a0840189905260c0840188905260e084018790528451808601909552600485526327b832b760e11b858301526101008401949094526000610120840181905280546001810180835591805284517f290decd9548b62a8d60345a988386fc84ba6bc95484008f6362f93160ef3e563600a90920291820180546001600160a01b0319169190951617845594518051949591948694936102b9937f290decd9548b62a8d60345a988386fc84ba6bc95484008f6362f93160ef3e564019201906113a6565b50604082015180516102d59160028401916020909101906113a6565b5060608201516003820180546001600160a01b039283166001600160a01b031991821617909155608084015160048401805491909316911617905560a0820151600582015560c082015180516103359160068401916020909101906113a6565b5060e082015180516103519160078401916020909101906113a6565b50610100820151805161036e9160088401916020909101906113a6565b5061012091909101516009909101555089516103919060019060208d0190611424565b505098975050505050505050565b60008181805b6001548110156103ed57826001600160a01b0316600182815481106103c657fe5b6000918252602090912001546001600160a01b031614156103e5578091505b6001016103a5565b509392505050565b6000806104018461039f565b9050600080828154811061041157fe5b600091825260209091206005600a9092020101939093555092915050565b60606000805480602002602001604051908101604052809291908181526020016000905b828210156107bb5760008481526020908190206040805161014081018252600a860290920180546001600160a01b03168352600180820180548451600261010094831615949094026000190190911692909204601f8101879004870283018701909452838252939491938583019391929091908301828280156105175780601f106104ec57610100808354040283529160200191610517565b820191906000526020600020905b8154815290600101906020018083116104fa57829003601f168201915b5050509183525050600282810180546040805160206001841615610100026000190190931694909404601f810183900483028501830190915280845293810193908301828280156105a95780601f1061057e576101008083540402835291602001916105a9565b820191906000526020600020905b81548152906001019060200180831161058c57829003601f168201915b505050918352505060038201546001600160a01b03908116602080840191909152600484015490911660408084019190915260058401546060840152600684018054825160026101006001841615026000190190921691909104601f8101859004850282018501909352828152608090940193929091908301828280156106715780601f1061064657610100808354040283529160200191610671565b820191906000526020600020905b81548152906001019060200180831161065457829003601f168201915b505050918352505060078201805460408051602060026001851615610100026000190190941693909304601f81018490048402820184019092528181529382019392918301828280156107055780601f106106da57610100808354040283529160200191610705565b820191906000526020600020905b8154815290600101906020018083116106e857829003601f168201915b505050918352505060088201805460408051602060026001851615610100026000190190941693909304601f81018490048402820184019092528181529382019392918301828280156107995780601f1061076e57610100808354040283529160200191610799565b820191906000526020600020905b81548152906001019060200180831161077c57829003601f168201915b5050505050815260200160098201548152505081526020019060010190610453565b5050505090505b90565b6000806107d18461039f565b905060008082815481106107e157fe5b90600052602060002090600a0201905060006001600160a01b0316846001600160a01b0316141561082d5760405162461bcd60e51b815260040161082490611ac0565b60405180910390fd5b60030180546001600160a01b0319166001600160a01b03949094169390931790925592915050565b61085d611338565b816000805b6001548110156108aa57826001600160a01b03166001828154811061088357fe5b6000918252602090912001546001600160a01b031614156108a2578091505b600101610862565b506108b3611338565b600082815481106108c057fe5b60009182526020918290206040805161014081018252600a90930290910180546001600160a01b03168352600180820180548451601f6002600019958416156101000295909501909216939093049081018790048702830187019094528382529394919385830193919290919083018282801561097e5780601f106109535761010080835404028352916020019161097e565b820191906000526020600020905b81548152906001019060200180831161096157829003601f168201915b5050509183525050600282810180546040805160206001841615610100026000190190931694909404601f81018390048302850183019091528084529381019390830182828015610a105780601f106109e557610100808354040283529160200191610a10565b820191906000526020600020905b8154815290600101906020018083116109f357829003601f168201915b505050918352505060038201546001600160a01b03908116602080840191909152600484015490911660408084019190915260058401546060840152600684018054825160026101006001841615026000190190921691909104601f810185900485028201850190935282815260809094019392909190830182828015610ad85780601f10610aad57610100808354040283529160200191610ad8565b820191906000526020600020905b815481529060010190602001808311610abb57829003601f168201915b505050918352505060078201805460408051602060026001851615610100026000190190941693909304601f8101849004840282018401909252818152938201939291830182828015610b6c5780601f10610b4157610100808354040283529160200191610b6c565b820191906000526020600020905b815481529060010190602001808311610b4f57829003601f168201915b505050918352505060088201805460408051602060026001851615610100026000190190941693909304601f8101849004840282018401909252818152938201939291830182828015610c005780601f10610bd557610100808354040283529160200191610c00565b820191906000526020600020905b815481529060010190602001808311610be357829003601f168201915b50505091835250506009919091015460209091015295945050505050565b600080610c2a8461039f565b90506000808281548110610c3a57fe5b90600052602060002090600a0201905083816008019080519060200190610c629291906113a6565b50505092915050565b60008181548110610c7857fe5b6000918252602091829020600a9091020180546001808301805460408051601f60026000199685161561010002969096019093169490940491820187900487028401870190528083526001600160a01b039093169550929390929190830182828015610d255780601f10610cfa57610100808354040283529160200191610d25565b820191906000526020600020905b815481529060010190602001808311610d0857829003601f168201915b50505060028085018054604080516020601f6000196101006001871615020190941695909504928301859004850281018501909152818152959695945090925090830182828015610db75780601f10610d8c57610100808354040283529160200191610db7565b820191906000526020600020905b815481529060010190602001808311610d9a57829003601f168201915b5050505060038301546004840154600585015460068601805460408051602060026101006001861615026000190190941693909304601f810184900484028201840190925281815297986001600160a01b039687169896909516965092949290830182828015610e685780601f10610e3d57610100808354040283529160200191610e68565b820191906000526020600020905b815481529060010190602001808311610e4b57829003601f168201915b5050505060078301805460408051602060026001851615610100026000190190941693909304601f8101849004840282018401909252818152949594935090830182828015610ef85780601f10610ecd57610100808354040283529160200191610ef8565b820191906000526020600020905b815481529060010190602001808311610edb57829003601f168201915b5050505060088301805460408051602060026001851615610100026000190190941693909304601f8101849004840282018401909252818152949594935090830182828015610f885780601f10610f5d57610100808354040283529160200191610f88565b820191906000526020600020905b815481529060010190602001808311610f6b57829003601f168201915b505050505090806009015490508a565b610fa0611338565b610fa8611338565b60008381548110610fb557fe5b60009182526020918290206040805161014081018252600a90930290910180546001600160a01b03168352600180820180548451601f600260001995841615610100029590950190921693909304908101879004870283018701909452838252939491938583019391929091908301828280156110735780601f1061104857610100808354040283529160200191611073565b820191906000526020600020905b81548152906001019060200180831161105657829003601f168201915b5050509183525050600282810180546040805160206001841615610100026000190190931694909404601f810183900483028501830190915280845293810193908301828280156111055780601f106110da57610100808354040283529160200191611105565b820191906000526020600020905b8154815290600101906020018083116110e857829003601f168201915b505050918352505060038201546001600160a01b03908116602080840191909152600484015490911660408084019190915260058401546060840152600684018054825160026101006001841615026000190190921691909104601f8101859004850282018501909352828152608090940193929091908301828280156111cd5780601f106111a2576101008083540402835291602001916111cd565b820191906000526020600020905b8154815290600101906020018083116111b057829003601f168201915b505050918352505060078201805460408051602060026001851615610100026000190190941693909304601f81018490048402820184019092528181529382019392918301828280156112615780601f1061123657610100808354040283529160200191611261565b820191906000526020600020905b81548152906001019060200180831161124457829003601f168201915b505050918352505060088201805460408051602060026001851615610100026000190190941693909304601f81018490048402820184019092528181529382019392918301828280156112f55780601f106112ca576101008083540402835291602001916112f5565b820191906000526020600020905b8154815290600101906020018083116112d857829003601f168201915b5050509183525050600991909101546020909101529392505050565b6001818154811061131e57fe5b6000918252602090912001546001600160a01b0316905081565b60405180610140016040528060006001600160a01b03168152602001606081526020016060815260200160006001600160a01b0316815260200160006001600160a01b0316815260200160008152602001606081526020016060815260200160608152602001600081525090565b828054600181600116156101000203166002900490600052602060002090601f016020900481019282601f106113e757805160ff1916838001178555611414565b82800160010185558215611414579182015b828111156114145782518255916020019190600101906113f9565b50611420929150611485565b5090565b828054828255906000526020600020908101928215611479579160200282015b8281111561147957825182546001600160a01b0319166001600160a01b03909116178255602090920191600190910190611444565b5061142092915061149f565b6107c291905b80821115611420576000815560010161148b565b6107c291905b808211156114205780546001600160a01b03191681556001016114a5565b80356114ce81611bdf565b92915050565b600082601f8301126114e557600080fd5b81356114f86114f382611b16565b611aef565b9150818183526020840193506020810190508385602084028201111561151d57600080fd5b60005b83811015611549578161153388826114c3565b8452506020928301929190910190600101611520565b5050505092915050565b80356114ce81611bf6565b600082601f83011261156f57600080fd5b813561157d6114f382611b37565b9150808252602083016020830185838301111561159957600080fd5b610c62838284611b99565b80356114ce81611bff565b600080600080600080600080610100898b0312156115cc57600080fd5b883567ffffffffffffffff8111156115e357600080fd5b6115ef8b828c016114d4565b98505060206116008b828c01611553565b975050604089013567ffffffffffffffff81111561161d57600080fd5b6116298b828c0161155e565b965050606089013567ffffffffffffffff81111561164657600080fd5b6116528b828c0161155e565b95505060806116638b828c016114c3565b94505060a06116748b828c016115a4565b93505060c089013567ffffffffffffffff81111561169157600080fd5b61169d8b828c0161155e565b92505060e089013567ffffffffffffffff8111156116ba57600080fd5b6116c68b828c0161155e565b9150509295985092959890939650565b6000602082840312156116e857600080fd5b60006116f48484611553565b949350505050565b6000806040838503121561170f57600080fd5b600061171b8585611553565b925050602061172c858286016114c3565b9150509250929050565b6000806040838503121561174957600080fd5b60006117558585611553565b925050602083013567ffffffffffffffff81111561177257600080fd5b61172c8582860161155e565b6000806040838503121561179157600080fd5b600061179d8585611553565b925050602061172c858286016115a4565b6000602082840312156117c057600080fd5b60006116f484846115a4565b60006117d883836118ef565b9392505050565b6117e881611b72565b82525050565b60006117f982611b65565b6118038185611b69565b93508360208202850161181585611b5f565b8060005b8581101561184f578484038952815161183285826117cc565b945061183d83611b5f565b60209a909a0199925050600101611819565b5091979650505050505050565b6117e881611b7d565b6117e881611b82565b600061187982611b65565b6118838185611b69565b9350611893818560208601611ba5565b61189c81611bd5565b9093019392505050565b60006118b3602783611b69565b7f41206e6577206f776e657220616464726573732073686f756c64206265206e6f8152667420656d70747960c81b602082015260400192915050565b80516000906101408401906119048582611865565b506020830151848203602086015261191c828261186e565b91505060408301518482036040860152611936828261186e565b915050606083015161194b60608601826117df565b50608083015161195e60808601826117df565b5060a083015161197160a08601826119d2565b5060c083015184820360c0860152611989828261186e565b91505060e083015184820360e08601526119a3828261186e565b9150506101008301518482036101008601526119bf828261186e565b9150506101208301516103ed6101208601825b6117e8816107c2565b602081016114ce82846117df565b602080825281016117d881846117ee565b602081016114ce828461185c565b6101408101611a17828d611865565b8181036020830152611a29818c61186e565b90508181036040830152611a3d818b61186e565b9050611a4c606083018a6117df565b611a5960808301896117df565b611a6660a08301886119d2565b81810360c0830152611a78818761186e565b905081810360e0830152611a8c818661186e565b9050818103610100830152611aa1818561186e565b9050611ab16101208301846119d2565b9b9a5050505050505050505050565b602080825281016114ce816118a6565b602080825281016117d881846118ef565b602081016114ce82846119d2565b60405181810167ffffffffffffffff81118282101715611b0e57600080fd5b604052919050565b600067ffffffffffffffff821115611b2d57600080fd5b5060209081020190565b600067ffffffffffffffff821115611b4e57600080fd5b506020601f91909101601f19160190565b60200190565b5190565b90815260200190565b60006114ce82611b8d565b151590565b60006114ce82611b72565b6001600160a01b031690565b82818337506000910152565b60005b83811015611bc0578181015183820152602001611ba8565b83811115611bcf576000848401525b50505050565b601f01601f191690565b611be881611b72565b8114611bf357600080fd5b50565b611be881611b82565b611be8816107c256fea365627a7a72315820e3af8185fde9d1ddb227200b141d4fb32843cb2abe135f78cdf2817656a14b776c6578706572696d656e74616cf564736f6c63430005100040",
  "source": "pragma solidity ^0.5.16;\npragma experimental ABIEncoderV2;\n\nimport { PhotoNFTDataStorages } from \"./photo-nft-data/commons/PhotoNFTDataStorages.sol\";\nimport { PhotoNFT } from \"./PhotoNFT.sol\";\n\n\n/**\n * @notice - This is the storage contract for photoNFTs\n */\ncontract PhotoNFTData is PhotoNFTDataStorages {\n\n    address[] public photoAddresses;\n\n    constructor() public {}\n\n    /**\n     * @notice - Save metadata of a photoNFT\n     */\n    function saveMetadataOfPhotoNFT(\n        address[] memory _photoAddresses, \n        PhotoNFT _photoNFT, \n        string memory _photoNFTName, \n        string memory _photoNFTSymbol, \n        address _ownerAddress, \n        uint _photoPrice, \n        string memory _ipfsHashOfPhoto,\n        string memory _photoMeta\n    ) public returns (bool) {\n        /// Save metadata of a photoNFT of photo\n        Photo memory photo = Photo({\n            photoNFT: _photoNFT,\n            photoNFTName: _photoNFTName,\n            photoNFTSymbol: _photoNFTSymbol,\n            ownerAddress: _ownerAddress,\n            artistAddress: _ownerAddress,\n            photoPrice: _photoPrice,\n            ipfsHashOfPhoto: _ipfsHashOfPhoto,\n            photoMeta: _photoMeta,\n            status: \"Open\",\n            reputation: 0\n        });\n        photos.push(photo);\n\n        /// Update photoAddresses\n        photoAddresses = _photoAddresses;     \n    }\n\n    /**\n     * @notice - Update owner address of a photoNFT by transferring ownership\n     */\n    function updateOwnerOfPhotoNFT(PhotoNFT _photoNFT, address _newOwner) public returns (bool) {\n        /// Identify photo's index\n        uint photoIndex = getPhotoIndex(_photoNFT);\n\n        /// Update metadata of a photoNFT of photo\n        Photo storage photo = photos[photoIndex];\n        require (_newOwner != address(0), \"A new owner address should be not empty\");\n        photo.ownerAddress = _newOwner;  \n    }\n\n    /**\n     * @notice - Update status (\"Open\" or \"Cancelled\")\n     */\n    function updateStatus(PhotoNFT _photoNFT, string memory _newStatus) public returns (bool) {\n        /// Identify photo's index\n        uint photoIndex = getPhotoIndex(_photoNFT);\n\n        /// Update metadata of a photoNFT of photo\n        Photo storage photo = photos[photoIndex];\n        photo.status = _newStatus;  \n    }\n\n    /**\n     * @notice - Update photo price\n     */\n    function updatePrice(PhotoNFT _photoNFT, uint256 _photoPrice) public returns (bool) {\n        /// Identify photo's index\n        uint photoIndex = getPhotoIndex(_photoNFT);\n\n        /// Update metadata of a photoNFT of photo\n        Photo storage photo = photos[photoIndex];\n        photo.photoPrice = _photoPrice;\n    }\n\n\n    ///-----------------\n    /// Getter methods\n    ///-----------------\n    function getPhoto(uint index) public view returns (Photo memory _photo) {\n        Photo memory photo = photos[index];\n        return photo;\n    }\n\n    function getPhotoIndex(PhotoNFT photoNFT) public view returns (uint _photoIndex) {\n        address PHOTO_NFT = address(photoNFT);\n\n        /// Identify member's index\n        uint photoIndex;\n        for (uint i=0; i < photoAddresses.length; i++) {\n            if (photoAddresses[i] == PHOTO_NFT) {\n                photoIndex = i;\n            }\n        }\n\n        return photoIndex;   \n    }\n\n    function getPhotoByNFTAddress(PhotoNFT photoNFT) public view returns (Photo memory _photo) {\n        address PHOTO_NFT = address(photoNFT);\n\n        /// Identify member's index\n        uint photoIndex;\n        for (uint i=0; i < photoAddresses.length; i++) {\n            if (photoAddresses[i] == PHOTO_NFT) {\n                photoIndex = i;\n            }\n        }\n\n        Photo memory photo = photos[photoIndex];\n        return photo;\n    }\n\n    function getAllPhotos() public view returns (Photo[] memory _photos) {\n        return photos;\n    }\n\n}\n",
  "sourcePath": "D:\\4.Works\\5.0513-\\0623(NFT)\\sample\\NFT-photo-marketplace-main\\contracts\\PhotoNFTData.sol",
  "compiler": {
    "name": "solc",
    "version": "0.5.16+commit.9c3226ce.Emscripten.clang"
  },
  "schemaVersion": "3.4.1",
  "updatedAt": "2021-07-09T05:23:34.115Z",
  "networkType": "ethereum",
  "devdoc": {
    "methods": {}
  },
  "userdoc": {
    "methods": {
      "getPhoto(uint256)": {
        "notice": "----------------- Getter methods -----------------"
      },
      "saveMetadataOfPhotoNFT(address[],address,string,string,address,uint256,string,string)": {
        "notice": "- Save metadata of a photoNFT"
      },
      "updateOwnerOfPhotoNFT(address,address)": {
        "notice": "- Update owner address of a photoNFT by transferring ownership"
      },
      "updatePrice(address,uint256)": {
        "notice": "- Update photo price"
      },
      "updateStatus(address,string)": {
        "notice": "- Update status (\"Open\" or \"Cancelled\")"
      }
    },
    "notice": "- This is the storage contract for photoNFTs"
  }
}