{
  "contractName": "PhotoNFTTradable",
  "abi": [
    {
      "inputs": [
        {
          "internalType": "contract PhotoNFTData",
          "name": "_photoNFTData",
          "type": "address"
        }
      ],
      "payable": false,
      "stateMutability": "nonpayable",
      "type": "constructor"
    },
    {
      "anonymous": false,
      "inputs": [
        {
          "indexed": false,
          "internalType": "uint256",
          "name": "ad",
          "type": "uint256"
        },
        {
          "indexed": false,
          "internalType": "bytes32",
          "name": "status",
          "type": "bytes32"
        }
      ],
      "name": "TradeStatusChange",
      "type": "event"
    },
    {
      "constant": true,
      "inputs": [],
      "name": "photoNFT",
      "outputs": [
        {
          "internalType": "contract PhotoNFT",
          "name": "",
          "type": "address"
        }
      ],
      "payable": false,
      "stateMutability": "view",
      "type": "function"
    },
    {
      "constant": true,
      "inputs": [],
      "name": "photoNFTData",
      "outputs": [
        {
          "internalType": "contract PhotoNFTData",
          "name": "",
          "type": "address"
        }
      ],
      "payable": false,
      "stateMutability": "view",
      "type": "function"
    },
    {
      "constant": true,
      "inputs": [
        {
          "internalType": "uint256",
          "name": "",
          "type": "uint256"
        }
      ],
      "name": "trades",
      "outputs": [
        {
          "internalType": "address",
          "name": "seller",
          "type": "address"
        },
        {
          "internalType": "uint256",
          "name": "photoId",
          "type": "uint256"
        },
        {
          "internalType": "uint256",
          "name": "photoPrice",
          "type": "uint256"
        },
        {
          "internalType": "bytes32",
          "name": "status",
          "type": "bytes32"
        }
      ],
      "payable": false,
      "stateMutability": "view",
      "type": "function"
    },
    {
      "constant": false,
      "inputs": [
        {
          "internalType": "contract PhotoNFT",
          "name": "photoNFT",
          "type": "address"
        },
        {
          "internalType": "uint256",
          "name": "_photoId",
          "type": "uint256"
        },
        {
          "internalType": "uint256",
          "name": "_photoPrice",
          "type": "uint256"
        }
      ],
      "name": "openTradeWhenCreateNewPhotoNFT",
      "outputs": [],
      "payable": false,
      "stateMutability": "nonpayable",
      "type": "function"
    },
    {
      "constant": false,
      "inputs": [
        {
          "internalType": "contract PhotoNFT",
          "name": "photoNFT",
          "type": "address"
        },
        {
          "internalType": "uint256",
          "name": "_photoId",
          "type": "uint256"
        },
        {
          "internalType": "uint256",
          "name": "photoPrice",
          "type": "uint256"
        }
      ],
      "name": "openTrade",
      "outputs": [],
      "payable": false,
      "stateMutability": "nonpayable",
      "type": "function"
    },
    {
      "constant": false,
      "inputs": [
        {
          "internalType": "contract PhotoNFT",
          "name": "photoNFT",
          "type": "address"
        },
        {
          "internalType": "uint256",
          "name": "_photoId",
          "type": "uint256"
        }
      ],
      "name": "cancelTrade",
      "outputs": [],
      "payable": false,
      "stateMutability": "nonpayable",
      "type": "function"
    },
    {
      "constant": false,
      "inputs": [
        {
          "internalType": "contract PhotoNFT",
          "name": "_photoNFT",
          "type": "address"
        },
        {
          "internalType": "uint256",
          "name": "_photoId",
          "type": "uint256"
        },
        {
          "internalType": "address",
          "name": "_buyer",
          "type": "address"
        }
      ],
      "name": "transferOwnershipOfPhotoNFT",
      "outputs": [],
      "payable": false,
      "stateMutability": "nonpayable",
      "type": "function"
    },
    {
      "constant": true,
      "inputs": [
        {
          "internalType": "uint256",
          "name": "_photoId",
          "type": "uint256"
        }
      ],
      "name": "getTrade",
      "outputs": [
        {
          "components": [
            {
              "internalType": "address",
              "name": "seller",
              "type": "address"
            },
            {
              "internalType": "uint256",
              "name": "photoId",
              "type": "uint256"
            },
            {
              "internalType": "uint256",
              "name": "photoPrice",
              "type": "uint256"
            },
            {
              "internalType": "bytes32",
              "name": "status",
              "type": "bytes32"
            }
          ],
          "internalType": "struct PhotoNFTTradable.Trade",
          "name": "trade_",
          "type": "tuple"
        }
      ],
      "payable": false,
      "stateMutability": "view",
      "type": "function"
    }
  ],
  "bytecode": "0x608060405234801561001057600080fd5b50604051610da4380380610da483398101604081905261002f9161006a565b600180546001600160a01b0319166001600160a01b039290921691909117905560006003556100c9565b8051610064816100b2565b92915050565b60006020828403121561007c57600080fd5b60006100888484610059565b949350505050565b6000610064826100a6565b600061006482610090565b6001600160a01b031690565b6100bb8161009b565b81146100c657600080fd5b50565b610ccc806100d86000396000f3fe608060405234801561001057600080fd5b50600436106100885760003560e01c8063759c4bf31161005b578063759c4bf314610101578063baea40e214610114578063e61b28db14610127578063ec0395141461013c57610088565b80631e6c598e1461008d5780632db25e05146100b9578063493c2176146100d957806349b1d3e7146100ee575b600080fd5b6100a061009b3660046108f2565b610144565b6040516100b09493929190610adb565b60405180910390f35b6100cc6100c73660046108f2565b610177565b6040516100b09190610bb7565b6100ec6100e7366004610862565b6101d3565b005b6100ec6100fc3660046108af565b6102d2565b6100ec61010f366004610828565b6103e2565b6100ec6101223660046108af565b61056f565b61012f61075c565b6040516100b09190610b19565b61012f61076b565b600260208190526000918252604090912080546001820154928201546003909201546001600160a01b0390911692919084565b61017f6107a9565b6101876107a9565b5050600090815260026020818152604092839020835160808101855281546001600160a01b03168152600182015492810192909252918201549281019290925260030154606082015290565b826101dc6107a9565b6101e584610177565b905080606001516327b832b760e11b1461021a5760405162461bcd60e51b815260040161021190610ba7565b60405180910390fd5b61022585858561077a565b60208101516040516323b872dd60e01b81526001600160a01b038416916323b872dd91610259913091889190600401610acd565b600060405180830381600087803b15801561027357600080fd5b505af1158015610287573d6000803e3d6000fd5b505050506810d85b98d95b1b195960ba1b6102a185610177565b60600152604051600080516020610c6a833981519152906102c3908690610bc5565b60405180910390a15050505050565b6040516323b872dd60e01b81526001600160a01b038416906323b872dd9061030290339030908790600401610aa5565b600060405180830381600087803b15801561031c57600080fd5b505af1158015610330573d6000803e3d6000fd5b50506003805460019081018083556040805160808101825233815260208082018a81528284018a81526327b832b760e11b60608501908152600096875260029384905295859020935184546001600160a01b0319166001600160a01b0390911617845590519583019590955593519381019390935590519183019190915590549051600080516020610c6a83398151915293506103d592506000199190910190610bdf565b60405180910390a1505050565b600154604051634dd5bfa560e11b81526001600160a01b0390911690639bab7f4a90610412908590600401610b27565b602060405180830381600087803b15801561042c57600080fd5b505af1158015610440573d6000803e3d6000fd5b505050506040513d601f19601f820116820180604052506104649190810190610802565b50600081815260026020526040902080546001600160a01b0316331461049c5760405162461bcd60e51b815260040161021190610b87565b80600301546327b832b760e11b146104c65760405162461bcd60e51b815260040161021190610ba7565b805460018201546040516323b872dd60e01b81526001600160a01b03868116936323b872dd936104fe93309390921691600401610acd565b600060405180830381600087803b15801561051857600080fd5b505af115801561052c573d6000803e3d6000fd5b505050600083815260026020526040908190206810d85b98d95b1b195960ba1b60039091015551600080516020610c6a83398151915291506103d5908490610bc5565b600154604051634dd5bfa560e11b81526001600160a01b0390911690639bab7f4a9061059f908690600401610b4d565b602060405180830381600087803b1580156105b957600080fd5b505af11580156105cd573d6000803e3d6000fd5b505050506040513d601f19601f820116820180604052506105f19190810190610802565b506001546040516322bcb96f60e11b81526001600160a01b039091169063457972de906106249086908590600401610b6c565b602060405180830381600087803b15801561063e57600080fd5b505af1158015610652573d6000803e3d6000fd5b505050506040513d601f19601f820116820180604052506106769190810190610802565b50600082815260026020526040902080546001600160a01b031633146106ae5760405162461bcd60e51b815260040161021190610b97565b60018101546040516323b872dd60e01b81526001600160a01b038616916323b872dd916106e2913391309190600401610aa5565b600060405180830381600087803b1580156106fc57600080fd5b505af1158015610710573d6000803e3d6000fd5b505050600084815260026020526040908190206327b832b760e11b60039091015551600080516020610c6a833981519152915061074e908590610bdf565b60405180910390a150505050565b6000546001600160a01b031681565b6001546001600160a01b031681565b60009182526002602052604090912080546001600160a01b0319166001600160a01b0390921691909117905550565b60408051608081018252600080825260208201819052918101829052606081019190915290565b80356107db81610c37565b92915050565b80516107db81610c4e565b80356107db81610c57565b80356107db81610c60565b60006020828403121561081457600080fd5b600061082084846107e1565b949350505050565b6000806040838503121561083b57600080fd5b600061084785856107ec565b9250506020610858858286016107f7565b9150509250929050565b60008060006060848603121561087757600080fd5b600061088386866107ec565b9350506020610894868287016107f7565b92505060406108a5868287016107d0565b9150509250925092565b6000806000606084860312156108c457600080fd5b60006108d086866107ec565b93505060206108e1868287016107f7565b92505060406108a5868287016107f7565b60006020828403121561090457600080fd5b600061082084846107f7565b61091981610c2c565b82525050565b61091981610c02565b61091981610c12565b61091981610c15565b6000610947602683610bf9565b7f54726164652063616e2062652063616e63656c6c6564206f6e6c79206279207381526532b63632b91760d11b602082015260400192915050565b600061098f602183610bf9565b7f54726164652063616e206265206f70656e206f6e6c792062792073656c6c65728152601760f91b602082015260400192915050565b60006109d2601283610bf9565b712a3930b2329034b9903737ba1027b832b71760711b815260200192915050565b6810d85b98d95b1b195960ba1b9052565b6000610a11600983610bf9565b6810d85b98d95b1b195960ba1b815260200192915050565b6327b832b760e11b9052565b6000610a42600483610bf9565b6327b832b760e11b815260200192915050565b80516080830190610a66848261091f565b506020820151610a796020850182610928565b506040820151610a8c6040850182610928565b506060820151610a9f6060850182610928565b50505050565b60608101610ab38286610910565b610ac0602083018561091f565b6108206040830184610928565b60608101610ab3828661091f565b60808101610ae9828761091f565b610af66020830186610928565b610b036040830185610928565b610b106060830184610928565b95945050505050565b602081016107db8284610931565b60408101610b358284610931565b8181036020830152610b4681610a04565b9392505050565b60408101610b5b8284610931565b8181036020830152610b4681610a35565b60408101610b7a8285610931565b610b466020830184610928565b602080825281016107db8161093a565b602080825281016107db81610982565b602080825281016107db816109c5565b608081016107db8284610a55565b60408101610bd38284610928565b6107db602083016109f3565b60408101610bed8284610928565b6107db60208301610a29565b90815260200190565b60006107db82610c20565b151590565b90565b60006107db82610c02565b6001600160a01b031690565b60006107db82610c15565b610c4081610c02565b8114610c4b57600080fd5b50565b610c4081610c0d565b610c4081610c15565b610c4081610c1256fe4d38ed2c5ea671a5ccddc331f0ebebd94a60aaf6e572543497485d4d148f9edfa365627a7a7231582084aa2c9646a1eedbd122661f91bbcd52f5188718207cc18a1a45a0ed6ce3db686c6578706572696d656e74616cf564736f6c63430005100040",
  "source": "pragma solidity ^0.5.16;\npragma experimental ABIEncoderV2;\n\nimport { PhotoNFT } from \"./PhotoNFT.sol\";\nimport { PhotoNFTData } from \"./PhotoNFTData.sol\";\n\n\n/**\n * @title - PhotoNFTTradable contract\n * @notice - This contract has role that put on sale of photoNFTs\n */\ncontract PhotoNFTTradable {\n    event TradeStatusChange(uint256 ad, bytes32 status);\n\n    PhotoNFT public photoNFT;\n    PhotoNFTData public photoNFTData;\n\n    struct Trade {\n        address seller;\n        uint256 photoId;  /// PhotoNFT's token ID\n        uint256 photoPrice;\n        bytes32 status;   /// Open, Executed, Cancelled\n    }\n    mapping(uint256 => Trade) public trades;  /// [Key]: PhotoNFT's token ID\n\n    uint256 tradeCounter;\n\n    constructor(PhotoNFTData _photoNFTData) public {\n        photoNFTData = _photoNFTData;\n        tradeCounter = 0;\n    }\n\n    /**\n     * @notice - This method is only executed when a seller create a new PhotoNFT\n     * @dev Opens a new trade. Puts _photoId in escrow.\n     * @param _photoId The id for the photoId to trade.\n     * @param _photoPrice The amount of currency for which to trade the photoId.\n     */\n    function openTradeWhenCreateNewPhotoNFT(PhotoNFT photoNFT, uint256 _photoId, uint256 _photoPrice) public {\n        photoNFT.transferFrom(msg.sender, address(this), _photoId);\n\n        tradeCounter += 1;    /// [Note]: New. Trade count is started from \"1\". This is to align photoId\n        trades[tradeCounter] = Trade({\n            seller: msg.sender,\n            photoId: _photoId,\n            photoPrice: _photoPrice,\n            status: \"Open\"\n        });\n        //tradeCounter += 1;  /// [Note]: Original\n        emit TradeStatusChange(tradeCounter - 1, \"Open\");\n    }\n\n    /**\n     * @dev Opens a trade by the seller.\n     */\n    function openTrade(PhotoNFT photoNFT, uint256 _photoId, uint256 photoPrice) public {\n        photoNFTData.updateStatus(photoNFT, \"Open\");\n        photoNFTData.updatePrice(photoNFT, photoPrice);\n\n        Trade storage trade = trades[_photoId];\n        require(\n            msg.sender == trade.seller,\n            \"Trade can be open only by seller.\"\n        );\n        photoNFT.transferFrom(msg.sender, address(this), trade.photoId);\n        trades[_photoId].status = \"Open\";\n        emit TradeStatusChange(_photoId, \"Open\");\n    }\n\n    /**\n     * @dev Cancels a trade by the seller.\n     */\n    function cancelTrade(PhotoNFT photoNFT, uint256 _photoId) public {\n        photoNFTData.updateStatus(photoNFT, \"Cancelled\");\n        \n        Trade storage trade = trades[_photoId];\n        require(\n            msg.sender == trade.seller,\n            \"Trade can be cancelled only by seller.\"\n        );\n        require(trade.status == \"Open\", \"Trade is not Open.\");\n        photoNFT.transferFrom(address(this), trade.seller, trade.photoId);\n        trades[_photoId].status = \"Cancelled\";\n        emit TradeStatusChange(_photoId, \"Cancelled\");\n    }\n\n    /**\n     * @dev Executes a trade. Must have approved this contract to transfer the amount of currency specified to the seller. Transfers ownership of the photoId to the filler.\n     */\n    function transferOwnershipOfPhotoNFT(PhotoNFT _photoNFT, uint256 _photoId, address _buyer) public {\n        PhotoNFT photoNFT = _photoNFT;\n\n        Trade memory trade = getTrade(_photoId);\n        require(trade.status == \"Open\", \"Trade is not Open.\");\n\n        _updateSeller(_photoNFT, _photoId, _buyer);\n\n        photoNFT.transferFrom(address(this), _buyer, trade.photoId);\n        getTrade(_photoId).status = \"Cancelled\";\n        emit TradeStatusChange(_photoId, \"Cancelled\");\n    }\n\n    function _updateSeller(PhotoNFT photoNFT, uint256 _photoId, address _newSeller) internal {\n        Trade storage trade = trades[_photoId];\n        trade.seller = _newSeller;\n    }\n\n\n    /**\n     * @dev - Returns the details for a trade.\n     */\n    function getTrade(uint256 _photoId) public view returns (Trade memory trade_) {\n        Trade memory trade = trades[_photoId];\n        return trade;\n        //return (trade.seller, trade.photoId, trade.photoPrice, trade.status);\n    }\n}\n",
  "sourcePath": "D:\\4.Works\\5.0513-\\0623(NFT)\\sample\\NFT-photo-marketplace-main\\contracts\\PhotoNFTTradable.sol",
  "compiler": {
    "name": "solc",
    "version": "0.5.16+commit.9c3226ce.Emscripten.clang"
  },
  "schemaVersion": "3.4.1",
  "updatedAt": "2021-07-09T05:23:29.577Z",
  "devdoc": {
    "methods": {
      "cancelTrade(address,uint256)": {
        "details": "Cancels a trade by the seller."
      },
      "getTrade(uint256)": {
        "details": "- Returns the details for a trade."
      },
      "openTrade(address,uint256,uint256)": {
        "details": "Opens a trade by the seller."
      },
      "openTradeWhenCreateNewPhotoNFT(address,uint256,uint256)": {
        "details": "Opens a new trade. Puts _photoId in escrow.",
        "params": {
          "_photoId": "The id for the photoId to trade.",
          "_photoPrice": "The amount of currency for which to trade the photoId."
        }
      },
      "transferOwnershipOfPhotoNFT(address,uint256,address)": {
        "details": "Executes a trade. Must have approved this contract to transfer the amount of currency specified to the seller. Transfers ownership of the photoId to the filler."
      }
    },
    "title": "- PhotoNFTTradable contract"
  },
  "userdoc": {
    "methods": {
      "openTradeWhenCreateNewPhotoNFT(address,uint256,uint256)": {
        "notice": "- This method is only executed when a seller create a new PhotoNFT"
      }
    },
    "notice": "- This contract has role that put on sale of photoNFTs"
  }
}