{
  "contractName": "PhotoNFTFactory",
  "abi": [
    {
      "inputs": [
        {
          "internalType": "contract PhotoNFTMarketplace",
          "name": "_photoNFTMarketplace",
          "type": "address"
        },
        {
          "internalType": "contract PhotoNFTData",
          "name": "_photoNFTData",
          "type": "address"
        }
      ],
      "payable": false,
      "stateMutability": "nonpayable",
      "type": "constructor"
    },
    {
      "anonymous": false,
      "inputs": [
        {
          "indexed": false,
          "internalType": "uint256",
          "name": "tokenId",
          "type": "uint256"
        },
        {
          "indexed": false,
          "internalType": "uint256",
          "name": "reputationCount",
          "type": "uint256"
        }
      ],
      "name": "AddReputation",
      "type": "event"
    },
    {
      "anonymous": false,
      "inputs": [
        {
          "indexed": false,
          "internalType": "address",
          "name": "owner",
          "type": "address"
        },
        {
          "indexed": false,
          "internalType": "contract PhotoNFT",
          "name": "photoNFT",
          "type": "address"
        },
        {
          "indexed": false,
          "internalType": "string",
          "name": "nftName",
          "type": "string"
        },
        {
          "indexed": false,
          "internalType": "string",
          "name": "nftSymbol",
          "type": "string"
        },
        {
          "indexed": false,
          "internalType": "uint256",
          "name": "photoPrice",
          "type": "uint256"
        },
        {
          "indexed": false,
          "internalType": "string",
          "name": "ipfsHashOfPhoto",
          "type": "string"
        }
      ],
      "name": "PhotoNFTCreated",
      "type": "event"
    },
    {
      "constant": true,
      "inputs": [
        {
          "internalType": "uint256",
          "name": "",
          "type": "uint256"
        }
      ],
      "name": "photoAddresses",
      "outputs": [
        {
          "internalType": "address",
          "name": "",
          "type": "address"
        }
      ],
      "payable": false,
      "stateMutability": "view",
      "type": "function"
    },
    {
      "constant": true,
      "inputs": [],
      "name": "photoNFTData",
      "outputs": [
        {
          "internalType": "contract PhotoNFTData",
          "name": "",
          "type": "address"
        }
      ],
      "payable": false,
      "stateMutability": "view",
      "type": "function"
    },
    {
      "constant": true,
      "inputs": [],
      "name": "photoNFTMarketplace",
      "outputs": [
        {
          "internalType": "contract PhotoNFTMarketplace",
          "name": "",
          "type": "address"
        }
      ],
      "payable": false,
      "stateMutability": "view",
      "type": "function"
    },
    {
      "constant": false,
      "inputs": [
        {
          "internalType": "string",
          "name": "nftName",
          "type": "string"
        },
        {
          "internalType": "string",
          "name": "nftSymbol",
          "type": "string"
        },
        {
          "internalType": "uint256",
          "name": "photoPrice",
          "type": "uint256"
        },
        {
          "internalType": "string",
          "name": "ipfsHashOfPhoto",
          "type": "string"
        },
        {
          "internalType": "string",
          "name": "photoMeta",
          "type": "string"
        }
      ],
      "name": "createNewPhotoNFT",
      "outputs": [
        {
          "internalType": "bool",
          "name": "",
          "type": "bool"
        }
      ],
      "payable": false,
      "stateMutability": "nonpayable",
      "type": "function"
    },
    {
      "constant": true,
      "inputs": [],
      "name": "baseTokenURI",
      "outputs": [
        {
          "internalType": "string",
          "name": "",
          "type": "string"
        }
      ],
      "payable": false,
      "stateMutability": "pure",
      "type": "function"
    },
    {
      "constant": true,
      "inputs": [
        {
          "internalType": "string",
          "name": "_ipfsHashOfPhoto",
          "type": "string"
        }
      ],
      "name": "getTokenURI",
      "outputs": [
        {
          "internalType": "string",
          "name": "",
          "type": "string"
        }
      ],
      "payable": false,
      "stateMutability": "view",
      "type": "function"
    }
  ],
  "bytecode": "0x608060405234801561001057600080fd5b506040516200265a3803806200265a83398101604081905261003191610084565b600280546001600160a01b03199081166001600160a01b03948516179182905560038054821693851693909317909255600180549190931691161790556100f7565b805161007e816100e0565b92915050565b6000806040838503121561009757600080fd5b60006100a38585610073565b92505060206100b485828601610073565b9150509250929050565b600061007e826100d4565b600061007e826100be565b6001600160a01b031690565b6100e9816100c9565b81146100f457600080fd5b50565b61255380620001076000396000f3fe60806040523480156200001157600080fd5b50600436106200006a5760003560e01c8063c4188f11146200006f578063d3e1f6e31462000091578063d547cfb714620000b7578063d9b7b0a014620000c1578063dc0985c314620000e7578063ec039514146200010d575b600080fd5b6200007962000117565b60405162000088919062000ad8565b60405180910390f35b620000a8620000a2366004620006cc565b62000126565b60405162000088919062000b0b565b620000a862000143565b620000d8620000d236600462000705565b62000172565b60405162000088919062000ac8565b620000fe620000f8366004620007e8565b6200037a565b6040516200008891906200092c565b62000079620003a2565b6002546001600160a01b031681565b60606200013d6200013662000143565b83620003b1565b92915050565b60408051808201909152601581527468747470733a2f2f697066732e696f2f697066732f60581b602082015290565b6000336060620001828562000126565b90506000828989848a60405162000199906200061f565b620001a9959493929190620009b6565b604051809103906000f080158015620001c6573d6000803e3d6000fd5b50600080546001810182558180527f290decd9548b62a8d60345a988386fc84ba6bc95484008f6362f93160ef3e5630180546001600160a01b0319166001600160a01b0384811691909117909155600354604051631e11035f60e01b81529394501691631e11035f916200024b9185908e908e9033908f908f908f9060040162000a21565b602060405180830381600087803b1580156200026657600080fd5b505af11580156200027b573d6000803e3d6000fd5b505050506040513d601f19601f82011682018060405250620002a19190810190620006a3565b50600354604051634dd5bfa560e11b81526001600160a01b0390911690639bab7f4a90620002d490849060040162000ae8565b602060405180830381600087803b158015620002ef57600080fd5b505af115801562000304573d6000803e3d6000fd5b505050506040513d601f19601f820116820180604052506200032a9190810190620006a3565b507f15da3952715f46312a55e03dc9ea5ce0ca9e2b8297f7c8f329d378b195ab173333828b8b8b8b60405162000366969594939291906200093c565b60405180910390a150505095945050505050565b600081815481106200038857fe5b6000918252602090912001546001600160a01b0316905081565b6003546001600160a01b031681565b6060620003ef8383604051806020016040528060008152506040518060200160405280600081525060405180602001604052806000815250620003f6565b9392505050565b6060808690506060869050606086905060608690506060869050606081518351855187518951010101016040519080825280601f01601f1916602001820160405280156200044b576020820181803883390190505b509050806000805b8851811015620004a8578881815181106200046a57fe5b602001015160f81c60f81b8383806001019450815181106200048857fe5b60200101906001600160f81b031916908160001a90535060010162000453565b5060005b87518110156200050157878181518110620004c357fe5b602001015160f81c60f81b838380600101945081518110620004e157fe5b60200101906001600160f81b031916908160001a905350600101620004ac565b5060005b86518110156200055a578681815181106200051c57fe5b602001015160f81c60f81b8383806001019450815181106200053a57fe5b60200101906001600160f81b031916908160001a90535060010162000505565b5060005b8551811015620005b3578581815181106200057557fe5b602001015160f81c60f81b8383806001019450815181106200059357fe5b60200101906001600160f81b031916908160001a9053506001016200055e565b5060005b84518110156200060c57848181518110620005ce57fe5b602001015160f81c60f81b838380600101945081518110620005ec57fe5b60200101906001600160f81b031916908160001a905350600101620005b7565b50909d9c50505050505050505050505050565b6118b58062000c5c83390190565b80516200013d8162000c36565b600082601f8301126200064c57600080fd5b8135620006636200065d8262000b46565b62000b1e565b915080825260208301602083018583830111156200068057600080fd5b6200068d83828462000bc8565b50505092915050565b80356200013d8162000c50565b600060208284031215620006b657600080fd5b6000620006c484846200062d565b949350505050565b600060208284031215620006df57600080fd5b813567ffffffffffffffff811115620006f757600080fd5b620006c4848285016200063a565b600080600080600060a086880312156200071e57600080fd5b853567ffffffffffffffff8111156200073657600080fd5b62000744888289016200063a565b955050602086013567ffffffffffffffff8111156200076257600080fd5b62000770888289016200063a565b9450506040620007838882890162000696565b935050606086013567ffffffffffffffff811115620007a157600080fd5b620007af888289016200063a565b925050608086013567ffffffffffffffff811115620007cd57600080fd5b620007db888289016200063a565b9150509295509295909350565b600060208284031215620007fb57600080fd5b6000620006c4848462000696565b600062000817838362000830565b505060200190565b6200082a8162000bb3565b82525050565b6200082a8162000b9e565b6000620008488262000b7b565b62000854818562000b89565b9350620008618362000b6f565b8060005b838110156200089e57620008798262000c1e565b62000885888262000809565b9750620008928362000b83565b92505060010162000865565b509495945050505050565b6200082a8162000bab565b6200082a8162000bbb565b6000620008cc8262000b7f565b620008d8818562000b89565b9350620008ea81856020860162000bd4565b620008f58162000c2c565b9093019392505050565b60006200090e60048362000b89565b6327b832b760e11b815260200192915050565b6200082a8162000bb0565b602081016200013d828462000830565b60c081016200094c82896200081f565b6200095b6020830188620008b4565b81810360408301526200096f8187620008bf565b90508181036060830152620009858186620008bf565b905062000996608083018562000921565b81810360a0830152620009aa8184620008bf565b98975050505050505050565b60a08101620009c6828862000830565b8181036020830152620009da8187620008bf565b90508181036040830152620009f08186620008bf565b9050818103606083015262000a068185620008bf565b905062000a17608083018462000921565b9695505050505050565b610100808252810162000a35818b6200083b565b905062000a46602083018a620008b4565b818103604083015262000a5a8189620008bf565b9050818103606083015262000a708188620008bf565b905062000a8160808301876200081f565b62000a9060a083018662000921565b81810360c083015262000aa48185620008bf565b905081810360e083015262000aba8184620008bf565b9a9950505050505050505050565b602081016200013d8284620008a9565b602081016200013d8284620008b4565b6040810162000af88284620008b4565b8181036020830152620003ef81620008ff565b60208082528101620003ef8184620008bf565b60405181810167ffffffffffffffff8111828210171562000b3e57600080fd5b604052919050565b600067ffffffffffffffff82111562000b5e57600080fd5b506020601f91909101601f19160190565b60009081526020902090565b5490565b5190565b60010190565b90815260200190565b6001600160a01b031690565b60006200013d8262000b92565b151590565b90565b60006200013d825b60006200013d8262000b9e565b82818337506000910152565b60005b8381101562000bf157818101518382015260200162000bd7565b8381111562000c01576000848401525b50505050565b60006200013d62000c188362000bb0565b62000b92565b60006200013d825462000c07565b601f01601f191690565b62000c418162000bab565b811462000c4d57600080fd5b50565b62000c418162000bb056fe60806040523480156200001157600080fd5b50604051620018b5380380620018b58339810160408190526200003491620004cd565b83838181620000536301ffc9a760e01b6001600160e01b03620000f216565b6200006e6380ac58cd60e01b6001600160e01b03620000f216565b6200008963780e9d6360e01b6001600160e01b03620000f216565b81516200009e906009906020850190620003b5565b508051620000b490600a906020840190620003b5565b50620000d0635b5e139f60e01b6001600160e01b03620000f216565b50505050620000e685836200012f60201b60201c565b5050505050506200064e565b6001600160e01b031980821614156200010a57600080fd5b6001600160e01b0319166000908152602081905260409020805460ff19166001179055565b600080620001456001600160e01b036200018116565b600c8054600101905590506200016584826001600160e01b03620001a616565b6200017a81846001600160e01b03620001ea16565b5092915050565b6000620001a06001600c546200022e60201b62000b681790919060201c565b90505b90565b620001bd82826200024a60201b62000b811760201c565b620001d282826001600160e01b036200031616565b620001e6816001600160e01b036200035416565b5050565b620001fe826001600160e01b036200039816565b6200020857600080fd5b6000828152600b6020908152604090912082516200022992840190620003b5565b505050565b6000828201838110156200024157600080fd5b90505b92915050565b6001600160a01b0382166200025e57600080fd5b62000272816001600160e01b036200039816565b156200027d57600080fd5b600081815260016020818152604080842080546001600160a01b0319166001600160a01b03881690811790915584526003825290922054620002cb929091906200022e811b62000b6817901c565b6001600160a01b0383166000818152600360205260408082209390935591518392907fddf252ad1be2c89b69c2b068fc378daa952ba7f163c4a11628f55a4df523b3ef908290a45050565b6001600160a01b0390911660009081526005602081815260408084208054868652600684529185208290559282526001810183559183529091200155565b600780546000838152600860205260408120829055600182018355919091527fa66cc928b5edb82af9bd49922954155ab7b0942694bea4ce44661d9a8736c6880155565b6000908152600160205260409020546001600160a01b0316151590565b828054600181600116156101000203166002900490600052602060002090601f016020900481019282601f10620003f857805160ff191683800117855562000428565b8280016001018555821562000428579182015b82811115620004285782518255916020019190600101906200040b565b50620004369291506200043a565b5090565b620001a391905b8082111562000436576000815560010162000441565b8051620002448162000629565b600082601f8301126200047657600080fd5b81516200048d6200048782620005bc565b62000595565b91508082526020830160208301858383011115620004aa57600080fd5b620004b7838284620005f6565b50505092915050565b8051620002448162000643565b600080600080600060a08688031215620004e657600080fd5b6000620004f4888862000457565b95505060208601516001600160401b038111156200051157600080fd5b6200051f8882890162000464565b94505060408601516001600160401b038111156200053c57600080fd5b6200054a8882890162000464565b93505060608601516001600160401b038111156200056757600080fd5b620005758882890162000464565b92505060806200058888828901620004c0565b9150509295509295909350565b6040518181016001600160401b0381118282101715620005b457600080fd5b604052919050565b60006001600160401b03821115620005d357600080fd5b506020601f91909101601f19160190565b60006001600160a01b03821662000244565b60005b8381101562000613578181015183820152602001620005f9565b8381111562000623576000848401525b50505050565b6200063481620005e4565b81146200064057600080fd5b50565b6200063481620001a3565b611257806200065e6000396000f3fe608060405234801561001057600080fd5b50600436106101165760003560e01c80636352211e116100a2578063b4a5b64611610071578063b4a5b64614610230578063b88d4fde14610238578063c87b56dd1461024b578063d0def5211461025e578063e985e9c51461027157610116565b80636352211e146101ef57806370a082311461020257806395d89b4114610215578063a22cb4651461021d57610116565b806318160ddd116100e957806318160ddd1461018e57806323b872dd146101a35780632f745c59146101b657806342842e0e146101c95780634f6ccce7146101dc57610116565b806301ffc9a71461011b57806306fdde0314610144578063081812fc14610159578063095ea7b314610179575b600080fd5b61012e610129366004610fd2565b610284565b60405161013b91906110e0565b60405180910390f35b61014c6102a3565b60405161013b91906110ee565b61016c61016736600461100e565b61033a565b60405161013b919061108e565b61018c610187366004610fa2565b61036a565b005b610196610417565b60405161013b91906110ff565b61018c6101b1366004610e64565b61041d565b6101966101c4366004610fa2565b610440565b61018c6101d7366004610e64565b61048e565b6101966101ea36600461100e565b6104a9565b61016c6101fd36600461100e565b6104dd565b610196610210366004610e0c565b6104ff565b61014c610530565b61018c61022b366004610f2a565b610591565b610196610616565b61018c610246366004610eb1565b61061c565b61014c61025936600461100e565b610642565b61012e61026c366004610f5a565b6106f5565b61012e61027f366004610e2a565b610726565b6001600160e01b03191660009081526020819052604090205460ff1690565b60098054604080516020601f600260001961010060018816150201909516949094049384018190048102820181019092528281526060939092909183018282801561032f5780601f106103045761010080835404028352916020019161032f565b820191906000526020600020905b81548152906001019060200180831161031257829003601f168201915b505050505090505b90565b600061034582610754565b61034e57600080fd5b506000908152600260205260409020546001600160a01b031690565b6000610375826104dd565b9050806001600160a01b0316836001600160a01b0316141561039657600080fd5b336001600160a01b03821614806103b257506103b28133610726565b6103bb57600080fd5b60008281526002602052604080822080546001600160a01b0319166001600160a01b0387811691821790925591518593918516917f8c5be1e5ebec7d5bd14f71427d1e84f3dd0314c0f7b2291e5b200ac8c7c3b92591a4505050565b60075490565b6104273382610771565b61043057600080fd5b61043b8383836107d0565b505050565b600061044b836104ff565b821061045657600080fd5b6001600160a01b038316600090815260056020526040902080548390811061047a57fe5b906000526020600020015490505b92915050565b61043b8383836040518060200160405280600081525061061c565b60006104b3610417565b82106104be57600080fd5b600782815481106104cb57fe5b90600052602060002001549050919050565b6000818152600160205260408120546001600160a01b03168061048857600080fd5b60006001600160a01b03821661051457600080fd5b506001600160a01b031660009081526003602052604090205490565b600a8054604080516020601f600260001961010060018816150201909516949094049384018190048102820181019092528281526060939092909183018282801561032f5780601f106103045761010080835404028352916020019161032f565b6001600160a01b0382163314156105a757600080fd5b3360008181526004602090815260408083206001600160a01b038716808552925291829020805460ff191685151517905590519091907f17307eab39ab6107e8899845ad3d59bd9653f200f220920489ca2b5937696c319061060a9085906110e0565b60405180910390a35050565b600c5481565b61062784848461041d565b610633848484846107ef565b61063c57600080fd5b50505050565b606061064d82610754565b61065657600080fd5b6000828152600b602090815260409182902080548351601f6002600019610100600186161502019093169290920491820184900484028101840190945280845290918301828280156106e95780601f106106be576101008083540402835291602001916106e9565b820191906000526020600020905b8154815290600101906020018083116106cc57829003601f168201915b50505050509050919050565b6000806107006108b4565b600c80546001019055905061071584826108d0565b61071f81846108f1565b5092915050565b6001600160a01b03918216600090815260046020908152604080832093909416825291909152205460ff1690565b6000908152600160205260409020546001600160a01b0316151590565b60008061077d836104dd565b9050806001600160a01b0316846001600160a01b031614806107b85750836001600160a01b03166107ad8461033a565b6001600160a01b0316145b806107c857506107c88185610726565b949350505050565b6107db838383610922565b6107e58382610a2f565b61043b8282610b24565b6000610803846001600160a01b0316610b62565b61080f575060016107c8565b604051630a85bd0160e11b81526000906001600160a01b0386169063150b7a02906108449033908a908990899060040161109c565b602060405180830381600087803b15801561085e57600080fd5b505af1158015610872573d6000803e3d6000fd5b505050506040513d601f19601f820116820180604052506108969190810190610ff0565b6001600160e01b031916630a85bd0160e11b14915050949350505050565b600c546000906108cb90600163ffffffff610b6816565b905090565b6108da8282610b81565b6108e48282610b24565b6108ed81610c33565b5050565b6108fa82610754565b61090357600080fd5b6000828152600b60209081526040909120825161043b92840190610cc9565b826001600160a01b0316610935826104dd565b6001600160a01b03161461094857600080fd5b6001600160a01b03821661095b57600080fd5b61096481610c77565b6001600160a01b03831660009081526003602052604090205461098e90600163ffffffff610cb416565b6001600160a01b0380851660009081526003602052604080822093909355908416815220546109c490600163ffffffff610b6816565b6001600160a01b038084166000818152600360209081526040808320959095558582526001905283812080546001600160a01b031916831790559251849391928716917fddf252ad1be2c89b69c2b068fc378daa952ba7f163c4a11628f55a4df523b3ef91a4505050565b6001600160a01b038216600090815260056020526040812054610a5990600163ffffffff610cb416565b600083815260066020526040902054909150808214610af4576001600160a01b0384166000908152600560205260408120805484908110610a9657fe5b906000526020600020015490508060056000876001600160a01b03166001600160a01b031681526020019081526020016000208381548110610ad457fe5b600091825260208083209091019290925591825260069052604090208190555b6001600160a01b0384166000908152600560205260409020805490610b1d906000198301610d47565b5050505050565b6001600160a01b0390911660009081526005602081815260408084208054868652600684529185208290559282526001810183559183529091200155565b3b151590565b600082820183811015610b7a57600080fd5b9392505050565b6001600160a01b038216610b9457600080fd5b610b9d81610754565b15610ba757600080fd5b600081815260016020818152604080842080546001600160a01b0319166001600160a01b0388169081179091558452600390915290912054610be891610b68565b6001600160a01b0383166000818152600360205260408082209390935591518392907fddf252ad1be2c89b69c2b068fc378daa952ba7f163c4a11628f55a4df523b3ef908290a45050565b600780546000838152600860205260408120829055600182018355919091527fa66cc928b5edb82af9bd49922954155ab7b0942694bea4ce44661d9a8736c6880155565b6000818152600260205260409020546001600160a01b031615610cb157600081815260026020526040902080546001600160a01b03191690555b50565b600082821115610cc357600080fd5b50900390565b828054600181600116156101000203166002900490600052602060002090601f016020900481019282601f10610d0a57805160ff1916838001178555610d37565b82800160010185558215610d37579182015b82811115610d37578251825591602001919060010190610d1c565b50610d43929150610d67565b5090565b81548183558181111561043b5760008381526020902061043b9181019083015b61033791905b80821115610d435760008155600101610d6d565b8035610488816111e5565b8035610488816111f9565b803561048881611202565b805161048881611202565b600082601f830112610dbe57600080fd5b8135610dd1610dcc82611134565b61110d565b91508082526020830160208301858383011115610ded57600080fd5b610df88382846111a3565b50505092915050565b80356104888161120b565b600060208284031215610e1e57600080fd5b60006107c88484610d81565b60008060408385031215610e3d57600080fd5b6000610e498585610d81565b9250506020610e5a85828601610d81565b9150509250929050565b600080600060608486031215610e7957600080fd5b6000610e858686610d81565b9350506020610e9686828701610d81565b9250506040610ea786828701610e01565b9150509250925092565b60008060008060808587031215610ec757600080fd5b6000610ed38787610d81565b9450506020610ee487828801610d81565b9350506040610ef587828801610e01565b925050606085013567ffffffffffffffff811115610f1257600080fd5b610f1e87828801610dad565b91505092959194509250565b60008060408385031215610f3d57600080fd5b6000610f498585610d81565b9250506020610e5a85828601610d8c565b60008060408385031215610f6d57600080fd5b6000610f798585610d81565b925050602083013567ffffffffffffffff811115610f9657600080fd5b610e5a85828601610dad565b60008060408385031215610fb557600080fd5b6000610fc18585610d81565b9250506020610e5a85828601610e01565b600060208284031215610fe457600080fd5b60006107c88484610d97565b60006020828403121561100257600080fd5b60006107c88484610da2565b60006020828403121561102057600080fd5b60006107c88484610e01565b61103581611192565b82525050565b61103581611169565b61103581611174565b60006110588261115c565b6110628185611160565b93506110728185602086016111af565b61107b816111db565b9093019392505050565b61103581610337565b60208101610488828461103b565b608081016110aa828761102c565b6110b7602083018661103b565b6110c46040830185611085565b81810360608301526110d6818461104d565b9695505050505050565b602081016104888284611044565b60208082528101610b7a818461104d565b602081016104888284611085565b60405181810167ffffffffffffffff8111828210171561112c57600080fd5b604052919050565b600067ffffffffffffffff82111561114b57600080fd5b506020601f91909101601f19160190565b5190565b90815260200190565b600061048882611186565b151590565b6001600160e01b03191690565b6001600160a01b031690565b600061048882600061048882611169565b82818337506000910152565b60005b838110156111ca5781810151838201526020016111b2565b8381111561063c5750506000910152565b601f01601f191690565b6111ee81611169565b8114610cb157600080fd5b6111ee81611174565b6111ee81611179565b6111ee8161033756fea365627a7a7231582091edca22f2c77442a595eb1b1c7ea3a7b1048238b18e32b16dd1d5a55c3db2266c6578706572696d656e74616cf564736f6c63430005100040a365627a7a723158206a349269551e83d06021e712d4ae635c56423ba6a9cf5242ba7a36ff4d83edd26c6578706572696d656e74616cf564736f6c63430005100040",
  "source": "pragma solidity ^0.5.16;\npragma experimental ABIEncoderV2;\n\nimport { SafeMath } from \"./openzeppelin-solidity/contracts/math/SafeMath.sol\";\nimport { Strings } from \"./libraries/Strings.sol\";\nimport { PhotoNFTFactoryStorages } from \"./photo-nft-factory/commons/PhotoNFTFactoryStorages.sol\";\nimport { PhotoNFT } from \"./PhotoNFT.sol\";\nimport { PhotoNFTMarketplace } from \"./PhotoNFTMarketPlace.sol\";\nimport { PhotoNFTData } from \"./PhotoNFTData.sol\";\n\n\n/**\n * @notice - This is the factory contract for a NFT of photo\n */\ncontract PhotoNFTFactory is PhotoNFTFactoryStorages {\n    using SafeMath for uint256;\n    using Strings for string;    \n\n    address[] public photoAddresses;\n    address PHOTO_NFT_MARKETPLACE;\n\n    PhotoNFTMarketplace public photoNFTMarketplace;\n    PhotoNFTData public photoNFTData;\n\n    constructor(PhotoNFTMarketplace _photoNFTMarketplace, PhotoNFTData _photoNFTData) public {\n        photoNFTMarketplace = _photoNFTMarketplace;\n        photoNFTData = _photoNFTData;\n        PHOTO_NFT_MARKETPLACE = address(photoNFTMarketplace);\n    }\n\n    /**\n     * @notice - Create a new photoNFT when a seller (owner) upload a photo onto IPFS\n     */\n    function createNewPhotoNFT(string memory nftName, string memory nftSymbol, uint photoPrice, string memory ipfsHashOfPhoto, string memory photoMeta) public returns (bool) {\n        address owner = msg.sender;  /// [Note]: Initial owner of photoNFT is msg.sender\n        string memory tokenURI = getTokenURI(ipfsHashOfPhoto);  /// [Note]: IPFS hash + URL\n        PhotoNFT photoNFT = new PhotoNFT(owner, nftName, nftSymbol, tokenURI, photoPrice);\n        photoAddresses.push(address(photoNFT));\n\n        /// Save metadata of a photoNFT created\n        photoNFTData.saveMetadataOfPhotoNFT(photoAddresses, photoNFT, nftName, nftSymbol, msg.sender, photoPrice, ipfsHashOfPhoto, photoMeta);\n        photoNFTData.updateStatus(photoNFT, \"Open\");\n\n        emit PhotoNFTCreated(msg.sender, photoNFT, nftName, nftSymbol, photoPrice, ipfsHashOfPhoto);\n    }\n\n\n    ///-----------------\n    /// Getter methods\n    ///-----------------\n    function baseTokenURI() public pure returns (string memory) {\n        return \"https://ipfs.io/ipfs/\";\n    }\n\n    function getTokenURI(string memory _ipfsHashOfPhoto) public view returns (string memory) {\n        return Strings.strConcat(baseTokenURI(), _ipfsHashOfPhoto);\n    }\n\n}\n",
  "sourcePath": "D:/4.Works/5.0513-/0623(NFT)/sample/NFT-photo-marketplace-main/contracts/PhotoNFTFactory.sol",
  "compiler": {
    "name": "solc",
    "version": "0.5.16+commit.9c3226ce.Emscripten.clang"
  },
  "schemaVersion": "3.4.1",
  "updatedAt": "2021-07-09T05:23:34.097Z",
  "networkType": "ethereum",
  "devdoc": {
    "methods": {}
  },
  "userdoc": {
    "methods": {
      "baseTokenURI()": {
        "notice": "----------------- Getter methods -----------------"
      },
      "createNewPhotoNFT(string,string,uint256,string,string)": {
        "notice": "- Create a new photoNFT when a seller (owner) upload a photo onto IPFS"
      }
    },
    "notice": "- This is the factory contract for a NFT of photo"
  }
}