{
  "contractName": "PhotoNFTDataStorages",
  "abi": [
    {
      "constant": true,
      "inputs": [
        {
          "internalType": "uint256",
          "name": "",
          "type": "uint256"
        }
      ],
      "name": "photos",
      "outputs": [
        {
          "internalType": "contract PhotoNFT",
          "name": "photoNFT",
          "type": "address"
        },
        {
          "internalType": "string",
          "name": "photoNFTName",
          "type": "string"
        },
        {
          "internalType": "string",
          "name": "photoNFTSymbol",
          "type": "string"
        },
        {
          "internalType": "address",
          "name": "ownerAddress",
          "type": "address"
        },
        {
          "internalType": "address",
          "name": "artistAddress",
          "type": "address"
        },
        {
          "internalType": "uint256",
          "name": "photoPrice",
          "type": "uint256"
        },
        {
          "internalType": "string",
          "name": "ipfsHashOfPhoto",
          "type": "string"
        },
        {
          "internalType": "string",
          "name": "photoMeta",
          "type": "string"
        },
        {
          "internalType": "string",
          "name": "status",
          "type": "string"
        },
        {
          "internalType": "uint256",
          "name": "reputation",
          "type": "uint256"
        }
      ],
      "payable": false,
      "stateMutability": "view",
      "type": "function"
    }
  ],
  "bytecode": "0x608060405234801561001057600080fd5b5061061b806100206000396000f3fe608060405234801561001057600080fd5b506004361061002b5760003560e01c8063af2a5d6f14610030575b600080fd5b61004d6004803603602081101561004657600080fd5b50356102b9565b604051808b6001600160a01b03166001600160a01b0316815260200180602001806020018a6001600160a01b03166001600160a01b03168152602001896001600160a01b03166001600160a01b0316815260200188815260200180602001806020018060200187815260200186810386528f818151815260200191508051906020019080838360005b838110156100ee5781810151838201526020016100d6565b50505050905090810190601f16801561011b5780820380516001836020036101000a031916815260200191505b5086810385528e818151815260200191508051906020019080838360005b83811015610151578181015183820152602001610139565b50505050905090810190601f16801561017e5780820380516001836020036101000a031916815260200191505b5086810384528a5181528a516020918201918c019080838360005b838110156101b1578181015183820152602001610199565b50505050905090810190601f1680156101de5780820380516001836020036101000a031916815260200191505b5086810383528951815289516020918201918b019080838360005b838110156102115781810151838201526020016101f9565b50505050905090810190601f16801561023e5780820380516001836020036101000a031916815260200191505b5086810382528851815288516020918201918a019080838360005b83811015610271578181015183820152602001610259565b50505050905090810190601f16801561029e5780820380516001836020036101000a031916815260200191505b509f5050505050505050505050505050505060405180910390f35b600081815481106102c657fe5b6000918252602091829020600a9091020180546001808301805460408051601f60026000199685161561010002969096019093169490940491820187900487028401870190528083526001600160a01b0390931695509293909291908301828280156103735780601f1061034857610100808354040283529160200191610373565b820191906000526020600020905b81548152906001019060200180831161035657829003601f168201915b50505060028085018054604080516020601f60001961010060018716150201909416959095049283018590048502810185019091528181529596959450909250908301828280156104055780601f106103da57610100808354040283529160200191610405565b820191906000526020600020905b8154815290600101906020018083116103e857829003601f168201915b5050505060038301546004840154600585015460068601805460408051602060026101006001861615026000190190941693909304601f810184900484028201840190925281815297986001600160a01b0396871698969095169650929492908301828280156104b65780601f1061048b576101008083540402835291602001916104b6565b820191906000526020600020905b81548152906001019060200180831161049957829003601f168201915b5050505060078301805460408051602060026001851615610100026000190190941693909304601f81018490048402820184019092528181529495949350908301828280156105465780601f1061051b57610100808354040283529160200191610546565b820191906000526020600020905b81548152906001019060200180831161052957829003601f168201915b5050505060088301805460408051602060026001851615610100026000190190941693909304601f81018490048402820184019092528181529495949350908301828280156105d65780601f106105ab576101008083540402835291602001916105d6565b820191906000526020600020905b8154815290600101906020018083116105b957829003601f168201915b505050505090806009015490508a56fea265627a7a723158206c0d33d7a600d09191ed24b8308c5f695e504dabcc55daf5b54753e08d68c7bc64736f6c63430005100032",
  "source": "pragma solidity ^0.5.0;\n\nimport { PhotoNFTDataObjects } from \"./PhotoNFTDataObjects.sol\";\n\n\n// shared storage\ncontract PhotoNFTDataStorages is PhotoNFTDataObjects {\n\n    Photo[] public photos;\n\n}\n\n",
  "sourcePath": "D:\\4.Works\\5.0513-\\0623(NFT)\\sample\\NFT-photo-marketplace-main\\contracts\\photo-nft-data\\commons\\PhotoNFTDataStorages.sol",
  "compiler": {
    "name": "solc",
    "version": "0.5.16+commit.9c3226ce.Emscripten.clang"
  },
  "schemaVersion": "3.4.1",
  "updatedAt": "2021-07-09T05:23:29.616Z",
  "devdoc": {
    "methods": {}
  },
  "userdoc": {
    "methods": {}
  }
}